:020000022000DC
:1030000000000120C9730200F1730200F373020093
:10301000F5730200F7730200F9730200000000006C
:10302000000000000000000000000000FB73020030
:10303000FD73020000000000FF7302000174020033
:103040005D56020003740200FD5C0200037402007E
:103050000374020003740200355A02000374020074
:10306000037402000374020003740200037402007C
:10307000037402000374020003740200037402006C
:103080000374020031420200037402000374020060
:10309000D14202000374020095780200037402001A
:1030A000037402000374020003740200037402003C
:1030B000037402000374020000000000000000001E
:1030C000037402000374020003740200037402001C
:1030D0000374020003740200037402000000000085
:1030E00000000000000000000000000000000000E0
:1030F00000000000000000000000000000000000D0
:1031000000000000000000000000000000000000BF
:1031100000000000000000000000000000000000AF
:10312000000000000000000000000000000000009F
:10313000000000000000000000000000000000008F
:10314000000000000000000000000000000000007F
:10315000000000000000000000000000000000006F
:10316000000000000000000000000000000000005F
:10317000000000000000000000000000000000004F
:10318000000000000000000000000000000000003F
:10319000000000000000000000000000000000002F
:1031A000000000000000000000000000000000001F
:1031B000000000000000000000000000000000000F
:1031C00000000000000000000000000000000000FF
:1031D00000000000000000000000000000000000EF
:1031E00000000000000000000000000000000000DF
:1031F00000000000000000000000000000000000CF
:1032000010B5054C237833B9044B13B10448AFF320
:1032100000800123237010BD24180020000000004E
:10322000CC8A0200084B10B51BB108480849AFF31F
:1032300000800848036803B910BD074B002BFBD082
:10324000BDE81040184700BF00000000CC8A020013
:1032500028180020B417002000000000154B002B98
:1032600008BF134B9D46A3F5803A00218B460F46BD
:103270001348144A121A04F0A8FC0F4B002B00D07C
:1032800098470E4B002B00D09847002000210400E7
:103290000D000D48002802D00C48AFF3008004F068
:1032A00063FC2000290003F07BFA04F049FC00BF16
:1032B00000000800000001200000000000000000E5
:1032C00024180020802200200000000000000000E0
:1032D0004FF0A043044AD3F80435125CD34003F006
:1032E000010080F001007047B4810200044B195CBA
:1032F0004FF0A04201238B40C2F80C35704700BF4D
:10330000B4810200044B195C4FF0A04201238B40B2
:10331000C2F80835704700BFB48102004FF0A043E7
:1033200010B44FF480204FF400344FF400214FF4D8
:103330008012C3F80845C3F80805C3F80815C3F898
:1033400008255DF8044B70474FF0A04310B44FF4CC
:1033500080204FF400344FF400214FF48012C3F862
:103360000C45C3F80C05C3F80C15C3F80C255DF823
:10337000044B7047074B4FF0A041185CD1F804355F
:103380000122824022EA03001340C1F80805C1F877
:103390000C357047B481020030B44FF0A0430322D3
:1033A0004FF400354FF480244FF400204FF4801187
:1033B000C3F84427C3F84827C3F84C27C3F850275D
:1033C000C3F80855C3F80845C3F80805C3F808153D
:1033D00030BC70470D2809D00E2809D00F2809D01D
:1033E000102814BF4FF0FF300320704700207047B3
:1033F0000120704702207047704700BF704700BF30
:1034000000B583B0044B0093044A402300F01EF83B
:1034100003B05DF804FB00BF213402004018002017
:10342000F8B5144672B10F460A26002579192246CE
:10343000002003F033FA0544241A08B9013E01D0F4
:10344000002CF3D1F8BD00BF03F0EEBAF0B595B093
:10345000002415460F4608461E4601F0BBFF3846BD
:10346000234605A9082208951A9D09960D950A94E8
:103470008DF82C400C9402F00BF89DF8143007984E
:1034800006998DF8104003F00302012A0290ADF86E
:103490000C102CD0022A04D0384601F0ABFF15B036
:1034A000F0BDBDF81650C3F3C202C3F38003C5F3E9
:1034B00089158DF80E208DF80F300826082D2C4622
:1034C00028BF08243346224638460EA901F0E0FF03
:1034D0002D1B21460EA802AA08AB264400F0E4FCEE
:1034E000002DEBD1384601F085FF15B0F0BDBDF8D9
:1034F0001460059DC6F38316C3F3C20EB2000EA975
:10350000C3F3800438460823C5F395258DF80EE0F3
:103510008DF80F4001F0BCFF08AB009328463246FF
:103520000EA902AB00F028FCB6E700BF10B5054CB1
:10353000FFF78AFF2046042100F0DEFB01236372BF
:1035400010BD00BF2017002008B5104B1048002206
:10355000FF21C3F8182499601A605A60C3F8142434
:1035600083F81C2401F0EEFE70B90A4B0A4A9A1A3D
:10357000D20807D0094903460B520133934200F1A8
:103580000C00F9D1002008BD08BD00BF8018002044
:10359000C8810200208B0200D88A0200B8170020E0
:1035A00021B9124A02EBC0000068704730B41049DC
:1035B0000E4D491BC9080ED00E4B5A88824218BFC7
:1035C000002205D10FE0DC89844203F10C0305D011
:1035D00001328A42F7D1002030BC704705EBC200AF
:1035E000006830BC70472846FAE700BFD88A02005E
:1035F000208B0200B8170020094B013903EBC000F3
:1036000003290BD8DFE801F0020806040220704706
:103610004079704700797047042070470020704758
:10362000D88A02002DE9F04F874C626823689A42DD
:1036300085B042D00023C4F81834BFF34F8F6068C0
:10364000A56805EA0003023304EB8302111D127919
:1036500012F0030F024610D10B884988C3F3891377
:1036600003EB911301331A4402EA0503023304EB1E
:103670008306311D3679B607EED004EB8303511C67
:103680005B680193294004EB810103F00303C968DF
:103690000291022B02F102086B4F12D0012B6DD068
:1036A000032B06D02368181A18BF012005B0BDE807
:1036B000F08FD7F81834002BF4D1002005B0BDE806
:1036C000F08FBDF806306148C3F38919B9F1500F86
:1036D000CA46A8BF4FF0500A6AF38F130AF10801D7
:1036E000ADF8063001F030FE0646002800F0878075
:1036F00025EA080B0BF1010B01F06CFE4FEA8B0B76
:10370000304601A90822002301F09AFEDA4540F272
:103710008E80BBF1000F74D107F10C015246304688
:10372000082301F08DFE09F1030708EB9707D4F891
:103730001834DFF81481D4F81054002B59D14DB14E
:103740006B7A2846314613B12B681B6898476D6821
:10375000002DF5D1304601F04DFE04A8002300F8FD
:103760000D3D01F02FFAD4F81834374A03B95760E9
:103770009DF8030001F04EFA606893E7BDF804304D
:103780003248C3F38312062A28BF0622911C62F333
:1037900089138900ADF8043001F0D6FD064670B3F8
:1037A00001F018FE0023304601A9082201F048FE6E
:1037B000BDF8043013F4707F44D04FF0000A4FF08E
:1037C000080908EA050104EB81014B460C3130463B
:1037D000042201F035FEBDF804300AF1010AC3F3FA
:1037E000831308F10107534509F10409B846E8D8E5
:1037F0009DE7304601F0FEFDD8F8040052E77868F6
:1038000050E708EA050107EB8101CBEB0A053046DA
:103810005A460C31EDB2082301F012FE30462A461A
:1038200007F10C010BF1080301F00AFE7BE708EA3F
:10383000050107EB81010C3152463046082301F0A7
:10384000FFFD70E7474672E780180020C88102003C
:103850002DE9F04F89B008AB00265B4C03F80D6DE5
:1038600002901846A3680391019301F0ABF9A56893
:103870006168D4F800806B180133C8EB0303032B95
:103880005ED805F10109B646C8EB090904F5836C59
:1038900004F214470126A2465CE8003F43EA060210
:1038A0004CE8002090F0000FF6D157E8003F43EAC3
:1038B000060247E8002090F0000FF6D101EA050368
:1038C000023304EB8302101D127912F0030F0A4633
:1038D00013D103884088C3F3891303EB901301339A
:1038E0001A4402EA0503023304EB830B0BF10400D4
:1038F0009BF804B01BF0030FEBD004EB8303023200
:103900005B68059303F00303012B57D0022B06D10C
:10391000BDF81630C3F38913033302EB930257E863
:10392000003F03EA0E0047E8000B9BF0000FF6D1C2
:1039300013B1CAF80420114609EB0103032BABD9DC
:1039400005EA0803023304EB83039DF813001A7998
:1039500042F003021A7123680233236001F05AF91E
:10396000019B029D08F101021A4008EA030304EBDF
:103970008202023304EB8303290CD1601A79C5F368
:10398000001161F3820265F3C5021A719A886FF320
:1039900089129A805A68039961F39F221146012087
:1039A00060F301015A60197194F81C341BB1FFF7E0
:1039B00039FE0028FBD109B0BDE8F08FBDF8143006
:1039C000C3F383131A44AAE7801800202DE9F04FAF
:1039D00089B008AB00265F4C03F80D6D01901846C6
:1039E000A36802910093039201F0ECF8A568616866
:1039F000D4F800806B180133C8EB0303042B5ED8A6
:103A000005F10109B646C8EB090904F5836C04F217
:103A100014470126A2465CE8003F43EA06024CE850
:103A2000002090F0000FF6D157E8003F43EA06026D
:103A300047E8002090F0000FF6D101EA05030233B9
:103A400004EB8302101D127912F0030F0A4613D102
:103A500003884088C3F3891303EB901301331A449E
:103A600002EA0503023304EB830B0BF104009BF81D
:103A700004B01BF0030FEBD004EB830302325B684E
:103A8000059303F00303012B5ED0022B06D1BDF892
:103A90001630C3F38913033302EB930257E8003F58
:103AA00003EA0E0047E8000B9BF0000FF6D113B1BC
:103AB000CAF80420114609EB0103042BABD905EA2F
:103AC0000803023304EB83039DF813001A7942F0D4
:103AD00003021A7123680333236001F09BF8009BF3
:103AE000019D039E08F1020108F1010219401A40EC
:103AF00008EA030304EB810104EB8202023304EBC6
:103B00008303280CCE60D0601A79C5F3001161F3ED
:103B1000820265F3C5021A719A88012060F3891246
:103B20009A805A68029961F39F22114660F301015D
:103B30005A60197194F81C341BB1FFF773FD00280B
:103B4000FBD109B0BDE8F08FBDF81430C3F3831387
:103B50001A44A3E7801800202DE9F04F8BB00AAD7E
:103B60000026644C05F80D6D029005932846A36865
:103B700003910193049201F025F8A5686168D4F8D7
:103B800000806B180133C8EB0303052B5ED805F1E9
:103B90000109B646C8EB090904F5836C04F2144721
:103BA0000126A2465CE8003F43EA06024CE80020FA
:103BB00090F0000FF6D157E8003F43EA060247E8CD
:103BC000002090F0000FF6D101EA0503023304EB68
:103BD0008302101D127912F0030F0A4613D10388D5
:103BE0004088C3F3891303EB901301331A4402EAAC
:103BF0000503023304EB830B0BF104009BF804B0C4
:103C00001BF0030FEBD004EB830302325B680793D6
:103C100003F00303012B66D0022B06D1BDF81E3042
:103C2000C3F38913033302EB930257E8003F03EA1F
:103C30000E0047E8000B9BF0000FF6D113B1CAF855
:103C40000420114609EB0103052BABD905EA080353
:103C5000023304EB83039DF81B001A7942F0030240
:103C60001A7123680433236000F0D4FF019B029E85
:103C7000049F08F10200184008F1030108F1010255
:103C800019401A4004EB800008EA030304EB8101A9
:103C900004EB82020233C76004EB83030598C8601B
:103CA000350CD5601A79C6F3001161F3820266F310
:103CB000C5021A719A88022161F389129A805A68A2
:103CC000039961F39F221146012060F301015A60BC
:103CD000197194F81C341BB1FFF7A4FC0028FBD128
:103CE0000BB0BDE8F08FBDF81C30C3F383131A444A
:103CF0009BE700BF8018002030B4144DD5F8104465
:103D0000002154B1237A8B4214D0234602E01A7A60
:103D10008A420FD05B68002BF9D10172D5F81034BC
:103D20000A4A7BB15B684360D2F810345860084699
:103D300030BC704701310A29E3D14FF0FF3108460A
:103D400030BC7047C2F810044360F0E780180020D0
:103D500038B5084BD3F81044012583F81C543CB106
:103D60002368657220465B6898476468002CF7D129
:103D700038BD00BF801800202DE9F04784B01D46F3
:103D80000C9C002394F80C802373EB7981460E463B
:103D900017460BB3062F0FD8DFE807F0363B414834
:103DA00004515E00B168F06896E80C000091019043
:103DB0004946204600F0B2FFEB792BB92B7AEBB9DC
:103DC0002046334900F0AAFF204600F09BFF84F80C
:103DD0000C8004B0BDE8F0872B7A002B4BD1AA7978
:103DE0002C4BA88853F822A00021FFF7D9FB52469C
:103DF00003462949204600F091FFCBE7204627499A
:103E0000274A00F08BFFDBE74946204600F086FF9B
:103E1000D2E749463268204600F080FFCCE74946A9
:103E2000204696E80C0000F079FFC5E7B16896E8F7
:103E30000C0020460091494600F070FFBCE7B168D5
:103E40003069F76896E80C000091029049460197A6
:103E5000204600F063FFAFE796E80C00B168F06819
:103E6000376976690396009101904946029720468A
:103E700000F054FFA0E7A979A888FFF7BDFB094B24
:103E8000064953F82020204600F048FFA7E700BF6E
:103E90002C820200DC8102001882020014820200DF
:103EA00024820200F0810200082951D82DE9F04750
:103EB0001D46002395F80C902B73D3799046074646
:103EC0000E46002B45D0002405E03A5D013400F099
:103ED00025FF082C0AD0A64228463049F5D82846A6
:103EE0002F49013400F01AFF082CF4D128462D493F
:103EF000DFF8D4A000F012FF00240DE03A5DDAF8FC
:103F00000030134401345B7813F0970F08BF2E2262
:103F100000F004FF082C0AD0A64228462249EDD81A
:103F200028462249013400F0F9FE082CF4D198F813
:103F3000073013B998F80830F3B928461C4900F047
:103F4000EDFE284600F0DEFE85F80C90BDE8F08717
:103F50007047137AB3B998F80620164BB8F80400E6
:103F600053F822400021FFF71BFB2246034612496B
:103F7000284600F0D3FEA6E728461049104A00F074
:103F8000CDFEDAE791799088FFF736FB0D4B0B49B0
:103F900053F82020284600F0C1FEDCE73082020002
:103FA000388202003C82020040820200208202002D
:103FB0002C820200DC8102001882020014820200BE
:103FC00024820200F0810200481700202DE9F84FFA
:103FD000234B1A788AB3DFF88CB0DFF88C80DFF8D7
:103FE0008C9000244FF0010A03E00134E4B29442C3
:103FF00023D226B2D8F80050DBF8003015F836008E
:104000000AFA00F1194205EBC607EED0154A23EA79
:104010000103136001F004FD15F83650D9F80030A3
:104020000AFA05F10B4000FA05F18B4207D00C4B60
:1040300001341A78E4B29442DBD3BDE8F88F797882
:104040007B68A1F10101B1FA81F14909002BEED0A1
:10405000091A2846B1FA81F149099847E7E700BFF4
:10406000781D0020A01D0020741D00209C1D002034
:1040700070B50646114800F069FD40B9104D0124A5
:104080002B68B4401C4203D023EA04042C6070BDAA
:10409000304601F0C5FC0B4E326860B122432B68FC
:1040A000094932601C432C60044809680022BDE8BD
:1040B000704000F0F1BC22EA0402F0E77C1D002011
:1040C000A01D00209C1D0020701D0020F0B5042ABA
:1040D00085B0174602D8072005B0F0BD019105460E
:1040E00001F068FB0199002830D01C4CDFF888E013
:1040F0001B481C4A1C4B256000264C1E07608EF88E
:10410000001016601E60E4B2032709B918E01C46CF
:1041100023B205EBC30215F833009378134A8DF8E8
:104120000D3003A98DF80C708DF80E608DF80F60BE
:1041300001F04AFB631E0028CED1DBB2002CE6D191
:104140000B4A0C48002100F095FCC5E7019101F0F5
:10415000EFFA01990028C8D0BEE700BF741D002007
:10416000701D00209C1D0020A01D00207140020039
:10417000CD3F0200A4820200781D002070B5084DDA
:104180002B785BB1074E00243368012113F834000B
:1041900001F0E4FB2B780134A342F5D8002070BD78
:1041A000781D0020741D002000B585B00023039009
:1041B000194644F2010001AAADF80430029300F060
:1041C00003F805B05DF804FB10B5FFF7C1FDFFF77C
:1041D00029FA0028FBD1104C10492088000440F037
:1041E0000100FFF735FB0E4B1B68DB0700D5FFDE38
:1041F00020880C49000440F00200FFF729FBBFF3C0
:104200004F8F0949094BCA6802F4E0621343CB603F
:10421000BFF34F8F00BFFDE7B8170020A882020050
:10422000F0ED00E0B482020000ED00E00400FA05C9
:10423000F8B5204A204B0025C2F84051C2F844513D
:10424000C2F84851C2F84C51C2F80051C2F80451AA
:104250001B6813B31949D2F804250C68141B1A689B
:1042600024F07F44A2422F4609D8197CDE69A41AA3
:10427000154499B91EB133461A68A242F5D9104BBC
:1042800010491A780B789A420DD00F490F4A41F81D
:1042900023504FF48013C2F80031F8BD1F745A69DF
:1042A00098699047E6E7531CDBB2022B08BF002356
:1042B0000B70EAE700100140A81D0020A41D00209B
:1042C000AC1D0020AD1D0020BC1E002000E100E060
:1042D0002DE9F04F7D4A7E49137809787D4899424F
:1042E00087B0066800F0E8810133DBB2022B08BF1B
:1042F000002379491370794A0291084652F8231035
:10430000036874488A19002522F07F420260AE4695
:104310002846A3B11A688A4200F2D681DC68C3F845
:1043200000E0891A1044DA6934B1871927F07F4711
:10433000DD619C605F601D461346002BEAD1029A46
:1043400004931360049C01230593654BDFF894816B
:104350001B780193029BDFF890C11F685D4BBB4641
:10436000D3F800A02F4600230093C1461E464FF00D
:10437000010E37B37A68B9683D46FF69CAEB02039C
:1043800023F07F4363453CD80B442B606E60AE60E6
:1043900085F810E0EE61002C67D021688B4242D98D
:1043A000204603E01168994244D21046C2695B1A64
:1043B000002AF7D12B60EA612346C5611C46002F15
:1043C000D8D198F8003098F801209A4200F08E80F9
:1043D0005A1C03EB430308EBC30399F802109D68D2
:1043E000D2B2914289F800201A7908BF89F800708A
:1043F000022A48D0032A3CD0012A22D023461C4658
:10440000DDE7C2EB0A0222F07F428A4202D28B1A17
:104410002B60BBE72E606E60AE6085F810E0EE6149
:104420001CB321680023CB1A23602B46EC61AB46FA
:104430001C46C4E7C91A11602B60EA612346C561B6
:10444000BCE72A7C0392002AD8D1DA686A6019692D
:10445000A9605869E86010339B68AB61019B002B31
:104460008CD0039B6B601A4688E72B46AB461C46F4
:10447000A5E70CB9C2E71C46E3692674002BFAD104
:104480009B461C469BE754B1A54200F00881234699
:1044900002E0954207D01346DA69002AF9D1234693
:1044A0002E741C468BE7AB4200F0FA80E96928685D
:1044B000D9610029F3D023460A6802440A60009AB1
:1044C0002E749C4218BF01220092EAE7AC1D002026
:1044D000AD1D0020A41D0020A81D0020BC1E002032
:1044E000AE1D0020B01D0020FEFF7F00029B9DF846
:1044F0000420C3F800B0764BC3F800A0754B1A70C7
:10450000009B1BB9049BA34200F0D081002C00F05B
:104510003C81714D6E4BD5F804051B686F4ED4F885
:1045200000C03178C21A22F07F420332002952D1F2
:104530006B4FDFF8B091DFF8B0814FF480314FF46A
:10454000003E0124C5F84413C5F80413C7F880E100
:10455000C7F800E02C602F21D9F8005000BF00BF41
:1045600000BF00BF00BF00BF00BF00BF45452FD048
:1045700000BF00BF00BF00BF00BF00BF00BF00BF43
:1045800000BF00BF00BF00BF00BF00BF00BF00BF33
:1045900000BF00BF00BF00BF00BF00BF00BF00BF23
:1045A00000BF00BF00BF00BF00BF00BF00BF00BF13
:1045B00000BF00BF00BF00BF00BF00BF00BF00BF03
:1045C00000BF00BF00BF00BF00BF00BF00BF00BFF3
:1045D0000139C3D1347062452CBF9A1803EB0C0229
:1045E0003D4922F07F43C1F84035D1F80425121A25
:1045F0001B1A22F07F4223F07F4303329A4248D9AC
:10460000D1F80435374AC1F84035126836492F23AE
:1046100000BF00BF00BF00BF00BF00BF00BF00BFA2
:104620008A422FD000BF00BF00BF00BF00BF00BF45
:1046300000BF00BF00BF00BF00BF00BF00BF00BF82
:1046400000BF00BF00BF00BF00BF00BF00BF00BF72
:1046500000BF00BF00BF00BF00BF00BF00BF00BF62
:1046600000BF00BF00BF00BF00BF00BF00BF00BF52
:1046700000BF00BF00BF00BF00BF00BF00BF00BF42
:1046800000BF00BF013BC3D1154B4FF40032C3F84C
:104690000021104A0023137007B0BDE8F08F2246B6
:1046A000D4F81CB0BBF1000F22D0D16910685B4672
:1046B00000297FF401AF02E70C4B02931B680493BF
:1046C000002505951C4640E6521A1A6037E600BFE1
:1046D000A41D0020AE1D002000100140C41E0020BB
:1046E00000E100E0441700200024F400A81D002091
:1046F0007549764BC1F808E075492F20096800BF5D
:1047000000BF00BF00BF00BF00BF00BF00BF994295
:104710002FD000BF00BF00BF00BF00BF00BF00BF61
:1047200000BF00BF00BF00BF00BF00BF00BF00BF91
:1047300000BF00BF00BF00BF00BF00BF00BF00BF81
:1047400000BF00BF00BF00BF00BF00BF00BF00BF71
:1047500000BF00BF00BF00BF00BF00BF00BF00BF61
:1047600000BF00BF00BF00BF00BF00BF00BF00BF51
:1047700000BF0138C3D1D1691068002900F09B80C7
:104780000122DA465B46019296E64F4A514B504E63
:104790004E484FF480314FF400370125C3F8807044
:1047A000C2F848132F23C2F80813556031681E461B
:1047B00000BF00BF00BF00BF00BF00BF00BF00BF01
:1047C00081422FD000BF00BF00BF00BF00BF00BFAD
:1047D00000BF00BF00BF00BF00BF00BF00BF00BFE1
:1047E00000BF00BF00BF00BF00BF00BF00BF00BFD1
:1047F00000BF00BF00BF00BF00BF00BF00BF00BFC1
:1048000000BF00BF00BF00BF00BF00BF00BF00BFB0
:1048100000BF00BF00BF00BF00BF00BF00BF00BFA0
:1048200000BF00BF013EC3D195602B4A146000BF9A
:1048300000BF00BF00BF00BF00BF00BF00BF81427C
:104840002FD000BF00BF00BF00BF00BF00BF00BF30
:1048500000BF00BF00BF00BF00BF00BF00BF00BF60
:1048600000BF00BF00BF00BF00BF00BF00BF00BF50
:1048700000BF00BF00BF00BF00BF00BF00BF00BF40
:1048800000BF00BF00BF00BF00BF00BF00BF00BF30
:1048900000BF00BF00BF00BF00BF00BF00BF00BF20
:1048A00000BF013BC3D10D4B1C70F2E6059B002BF2
:1048B0003FF4EFAE2AE601231A4601938A468B465F
:1048C0000B4600922E74ECE5001001400024F40029
:1048D0004417002000E100E0A41D0020C41E0020B9
:1048E0002DE9F041594B5A4A5A4D5B4E4FF48034F2
:1048F0004FF400310120C2F88010C3F848432F2143
:10490000C3F8084358602D680C4600BF00BF00BFC5
:1049100000BF00BF00BF00BF00BFB5422FD000BF27
:1049200000BF00BF00BF00BF00BF00BF00BF00BF8F
:1049300000BF00BF00BF00BF00BF00BF00BF00BF7F
:1049400000BF00BF00BF00BF00BF00BF00BF00BF6F
:1049500000BF00BF00BF00BF00BF00BF00BF00BF5F
:1049600000BF00BF00BF00BF00BF00BF00BF00BF4F
:1049700000BF00BF00BF00BF00BF00BF00BF013CC1
:10498000C3D1364C98600020206000BF00BF00BF3C
:1049900000BF00BF00BF00BF00BFB5422FD000BFA7
:1049A00000BF00BF00BF00BF00BF00BF00BF00BF0F
:1049B00000BF00BF00BF00BF00BF00BF00BF00BFFF
:1049C00000BF00BF00BF00BF00BF00BF00BF00BFEF
:1049D00000BF00BF00BF00BF00BF00BF00BF00BFDF
:1049E00000BF00BF00BF00BF00BF00BF00BF00BFCF
:1049F00000BF00BF00BF00BF00BF00BF00BF013944
:104A0000C3D1174D1749DFF86080DFF860C0DFF8C9
:104A100060E028704FF48016E0250B27C8F80000EE
:104A20008CF800008EF80000087048708F70C2F893
:104A3000806182F814531660C3F8080582F8115398
:104A4000D3F804352360BDE8F08100BF00100140B9
:104A500000E100E0441700200024F400A41D002021
:104A6000C41E0020B01D0020A81D0020AC1D002089
:104A7000AD1D0020074B9B780BB9082070473AB159
:104A800030B10368187C0028F7D159745A61704717
:104A900007207047B01D00202DE9F043284CA37873
:104AA00083B01BB9082003B0BDE8F0830028F9D01B
:104AB000042903D8072003B0BDE8F0834369002B25
:104AC000F0D0064602A8737C0025012B00F8015D9A
:104AD0000CBF8946A94690460F4600F073F86378EC
:104AE000A07821785A1CD2B2904208BF2A4691423F
:104AF0001FD003EB430304EBC30319464FF0010E31
:104B000041F8086F0F4883F804E0D0F804654E6060
:104B10008F609DF80700C3F81490C3F81880627086
:104B200000F078F8084B4FF480122846C3F80021B3
:104B3000B9E79DF8070000F06DF80420B3E700BF67
:104B4000B01D00200010014000E100E070B51B4CDA
:104B5000A37882B013B9082002B070BD0028FAD043
:104B60004369002BF7D0064602A8002500F8015D36
:104B7000357400F027F86278A0782178531CDBB2F6
:104B8000984208BF2B46994212D002EB420204EB36
:104B9000C20202219DF8070096601171637000F057
:104BA00039F8074B4FF480122846C3F80021D3E7A9
:104BB0009DF8070000F02EF80420CDE7B01D00207E
:104BC00000E100E0F0B4EFF3108472B60E4B9A6887
:104BD000B2B90E4901259D60D1F880700C4D2E466A
:104BE0003D401D60C1F88060D1F884505D604FF099
:104BF000FF33C1F88430027004B962B6F0BC70476C
:104C000001230370F8E700BFFC21002000E100E071
:104C1000FC06FFBD094B9A6872B168B910B4EFF396
:104C2000108272B606491C680C605C684C60986023
:104C300002B962B65DF8044B704700BFFC2100204A
:104C400000E100E0B8B130B4416882680468521AEB
:104C5000D2B2531E2160DBB242B101680A685C1E09
:104C6000551C0D601370E3B2FF2BF6D103680020D2
:104C7000187130BC70470E20704700BF70B582B00D
:104C800002AB002503F8015D04461846FFF79AFFC2
:104C9000236861681A688A4210D9511E1960216818
:104CA000A3680E68087912F8015C228AE4689B1BED
:104CB000DBB2984205FB024538BF0B719DF8070037
:104CC000FFF7A8FF284602B070BD00BF30B583B023
:104CD00002AB002203F8012D054618460C46FFF7EB
:104CE00071FF2A681368591C1160E9682A8A641ADE
:104CF000B4FBF2F41C709DF80700FFF78BFF03B0C4
:104D000030BD00BF826802B9704710B504464369E0
:104D10002168006998470023A36010BD0EB400B558
:104D200082B0039929B102AA04AB42F8043D00F015
:104D300089F802B05DF804EB03B070472DE9F84F35
:104D40001746B9428A4606461D46DDF828B00B9A3A
:104D500073D30B464FF00108B3FBF7F39F4208F102
:104D60000108F9D9A84538BFA84612F0010902D1B7
:104D7000BBF1000F41D1B168012402E0013D07FB06
:104D800004F4012DFAD8BAFBF4F39F42F7D92C4D65
:104D900002E0B168BAFBF4F34A1CB2603268E85C26
:104DA0005054B0687268904204FB13AA02D3304694
:104DB000FFF7A8FFB4FBF7F4002CEAD1B9F1000F1C
:104DC00015D0BBF1000F12D0C34510D92024B36811
:104DD0003268591CB160D454B26873689A420BF1BE
:104DE000FF3B06D2BBF1000F01D0C345EFD8BDE8B1
:104DF000F88F3046FFF786FFF4E7930718D4202496
:104E0000C345B8D9B16833684A1CB2605C54B16814
:104E1000736899420BF1FF3B05D2BBF1000FABD099
:104E2000C345F0D8A8E73046FFF76CFFB168F4E758
:104E3000002D14BF20243024E2E74FF0010891E751
:104E4000CC8202002DE9F04F0D4685B0002900F01C
:104E5000B2800B78DFF8E8A4064691460135002BB6
:104E600000F0A580252B40F0A28129464FF00008D4
:104E70000D4611F8013B2D2B00F09381302B00F0F3
:104E800093812B2B00F085812A2B00F09E81A3F1CA
:104E90003002092A00F2BE816A1C002404EB84045B
:104EA00003EB44042A2BA4F13004154600F08E8154
:104EB0001378A3F13001092905F10102EED91A4650
:104EC0002E2A00F09081002701E015F8012F02F052
:104ED000FB03682BF9D0253A532A63D8DFE812F098
:104EE00027016200620062006200620062006200EC
:104EF00062006200620062006200620062006200A2
:104F00006200620062006200620062006200620091
:104F10006200620062006200620062006200620081
:104F20006200620062006200620062006200620071
:104F30006200620062006200620062006200620061
:104F40006200620062004A01620062006200620068
:104F50006200620062006200620062003601CE0000
:104F60006200620062006200CE00620062006200C5
:104F7000620062006200A900620062006E006200CE
:104F80005400620062004A01D9F800301A1DC9F8C5
:104F90000020196800943B46CDF8048030460A2270
:104FA000FFF7CCFE01352B78002B7FF457AF337B16
:104FB000002B40F06C8105B0BDE8F08FD9F80030CF
:104FC0001A1DC9F8002018F0010F1F6840F0258154
:104FD000002F00F0A581384602F007FE80464445C8
:104FE00015D9A4B14FF0200B00E084B1B26833684A
:104FF000511CB16003F802B0B26873689A4204F1C0
:10500000FF3402D33046FFF77DFE4445EDD8013F23
:1050100017F8013F002BC5D0B2683168501CB06052
:105020008B54B26873689A42F2D33046FFF76AFE37
:10503000EEE7D9F80020131DC9F80030B3683168D5
:105040001468581C3022B060CA54B3687268934226
:1050500080F018813268581C7821B060D154B26851
:1050600073689A4280F00A81082300220192214647
:10507000009330461022FFF761FE93E7D9F8003025
:105080001A1DC9F80020D3F800B08BEAEB73A3EB2C
:10509000EB73092B4FF0010108DD8AFB0302DB17DC
:1050A000C3EBA203092B01F10101F6DCB94238BFC1
:1050B000394634B1BBF1000F02DB18F0040F00D009
:1050C000013C18F0020F40F0D58018F0010F18D104
:1050D000002C00F006818C4213D94FF0200CB268EE
:1050E0003368501CB06003F802C0B26873689A421B
:1050F00004F1FF3480F0F780002C00F0F2808C4245
:10510000EDD8BBF1000FC0F20D8118F0040F40F094
:10511000F48008F00303022B00F0BF808DE810013B
:1051200059463B4630460A22FFF708FE3AE7B36885
:105130003268581C2521B060D154B26873689A4215
:10514000FFF430AF3046FFF7DDFD2BE7D9F8002044
:10515000131DC9F80030B36831681278581CB0606C
:10516000CA54B26873689A42FFF41CAF3046FFF726
:10517000C9FD17E7D9F800301A1DC9F800201968D1
:1051800000943B46CDF8048030461022FFF7D6FD50
:1051900008E70D4611F8013B2D2B48F004087FF479
:1051A0006DAE48F0010863E648F0020860E6B268B8
:1051B0003168501CB0608B54B26873689A42FFF437
:1051C000F2AE3046FFF79EFDEDE60024D9F8003040
:1051D0001A1DC9F800206A781B682E2A1C4405F1A4
:1051E00001057FF470AE6A78A2F13003092B05F156
:1051F00001054FF000073FF66AAE07EB870702EBA9
:10520000470715F8012FA2F13003092BA7F130074A
:10521000F3D95CE61A46002452E6B846C7EB080B01
:1052200018F8012B8AB1B1683368481CB0605A5431
:10523000B26873689A42F1D33046FFF763FDC7EB5B
:10524000080B18F8012B002AEDD15C457FF6AAAEB9
:105250002027B3683268591CB160D754B2687368AC
:105260009A4204F1FF3402D33046FFF74BFD5C4510
:10527000EFD897E6002F3FF444AF26E73046FFF71C
:1052800041FDF1E63046FFF73DFDB368E2E630460A
:1052900005B0BDE8F04FFFF735BD002F7FF43EAFFE
:1052A000002C3BD08C427FF639AF4FF0300CB26807
:1052B0003368501CB06003F802C0B26873689A4249
:1052C00004F1FF3403D24CB38C42F0D826E73046C9
:1052D000CDF80CC00291FFF715FDDDF80CC0029966
:1052E000F1E700240DE73046CDF80CC00291FFF73E
:1052F00009FDDDF80CC00299FEE6B268531CB360EC
:1053000033682B209854B26873689A42FFF401AF57
:1053100030460291FFF7F6FC0299FAE60024FDE61A
:10532000B8465CE6B268531CB36033682D209854CD
:10533000B26873689A42CBF1000BFFF4EAAEE7E77C
:1053400067666666FFF77EBC2DE9F041B0F8108015
:10535000A8F104084144CF1C0646FFF78FFCB7FBB9
:10536000F8F7044678B3FFB200250123013FA0F807
:10537000068006600571437128D0804609E0637994
:10538000AF4203F101036371C8F800000660804674
:105390001CD03046FFF772FC01350028EFD166794A
:1053A000721E234603D0013082421B68FBD81F685F
:1053B0004EB1002523682146013538461C46FFF7CB
:1053C00085FCAE42F6D10020BDE8F0812046BDE864
:1053D000F08100BF10B40430012350E8002F02EB2D
:1053E000030140E8001494F0000FF6D15DF8044B7F
:1053F000704700BF0146021DF8B5012052E8004F7A
:10540000A4EB000342E8003595F0000FF6D113F04D
:10541000FF0300D0F8BD4E79701E0A4603D0013359
:1054200098421268FBD81768002EF3D000240D684C
:1054300001343846FFF74AFCA6422946F7D1F8BDA9
:105440002DE9F0410446181DE688B0FBF6F30F463F
:10545000154606FB130013B1013B2468FCD1321A38
:10546000AA4228BF2A468DB14FF000082044AD1A49
:1054700007EB08010430904402F09CFBB5422A4639
:10548000246828BF32460020002DEFD1BDE8F0810E
:105490002DE9F041C688043304460F46B3FBF6F00D
:1054A000154606FB103110B101382468FCD1721A80
:1054B000AA4228BF2A468DB14FF000082144AD1AF8
:1054C000043107EB0800904402F074FBB5422A4611
:1054D000246828BF32460021002DEFD1BDE8F081BD
:1054E00001600B6843604A68934204BF0023436035
:1054F000704700BF426842B101688B681344436043
:105500004A68934204BF002343607047184A30B48E
:1055100002F1F005AB1ADB1003EBD3735B1002EB67
:10552000C30152F83330984228BF0C4605D311E02E
:1055300052F8333098420CD221468B1ADB1003EB21
:10554000D3735B10914202EBC304F1D8094830BC1D
:1055500070470D46984204D904F10802AA42D9D3F3
:10556000F4E76068034B002808BF1846EFE700BF68
:10557000F0850200E086020000B1704710B5064CCD
:10558000A3683BB11A68A2605B6800209847A368D3
:10559000002BF7D110BD00BFC81E002010B5012898
:1055A00082B02AD023D303281FD10020072100F086
:1055B00097F802A80023264C00F8013DFFF702FBF4
:1055C000E368013BE360E3685BB9224B01221A60A8
:1055D0004FF08042D2F81834C3F30043002BF9D1C6
:1055E000A3709DF80700FFF715FB02B010BD1A4B22
:1055F0000122C3F8802002B010BD02A80023144C81
:1056000000F8013DFFF7DEFA237893B9124A636090
:10561000A3602361E360106810F0010014D002F071
:1056200033F920B94FF080430122C3F81825012334
:105630002370E3689DF8070001330122E360A27044
:10564000FFF7E8FA02B010BD072100F049F8E6E7DD
:10565000C81E00200C00004000E100E010B51D4B0A
:105660001A6882B0F2B91C4B1A680AB902B010BDB0
:1056700000221A601B6801934FF080430222174CEE
:105680000199C3F8082323690122A270002BEDD0F1
:105690001A6822615B68012098472369002BF7D1C3
:1056A00002B010BD00221A601B6800934FF08043C7
:1056B00001220A4C0099C3F80823A3686270002BEA
:1056C000D1D01A68A2605B6800209847A368002BBD
:1056D000F7D1C8E70001004004010040C81E0020C7
:1056E000002810B418DB00F1604303F56143490161
:1056F000C9B283F80013C3B24009800000F16040D2
:1057000000F5614003F01F0201239340C0F880318F
:1057100003605DF8044B7047C3B2044A03F00F0402
:1057200049012244C9B21176E6E700BFFCEC00E073
:1057300030B51D4C94F8545083B015B1082003B017
:1057400030BD4FF0FF33FF22062007212363636340
:10575000A363E36323646364A364E364236063601B
:10576000A360E36023616361A361E361236284F862
:1057700050306362A36284F85230E36284F853309D
:1057800084F85120FFF7ACFF084B094A1D601B68E5
:10579000019301984FF000430121284684F85410EA
:1057A000C2F8043303B030BDDC1E00207C61004031
:1057B00000600040034B93F85400003018BF0120F4
:1057C000704700BFDC1E0020F0B5634C251895F92A
:1057D0003030002B01DB0820F0BD91F803E0944647
:1057E000BEF1000F56D02368013300F0AD800826CB
:1057F00000256B1C584F54F82320013251D0AB1CAC
:105800009E4245D957F8232001324AD0EB1C9E42D4
:105810003ED957F82320013243D02B1D9E4237D961
:1058200057F8232001323CD06B1D9E4230D957F8E7
:105830002370013735D0AB1D9E4229D954F823205F
:10584000454F01322DD0EB1D9E4221D957F8232020
:10585000013226D005F108039E4219D957F82320BA
:1058600001321ED005F109039E4211D957F82320B9
:10587000013216D005F10A039E4209D957F8237068
:1058800001370ED00B35AE4202D9E36A013307D09F
:105890000420F0BD236A01334ED00C260825A8E76A
:1058A0000B232618DDB244F823C086F83050BEF131
:1058B000000F02D1234483F848008B78ABB94A78B3
:1058C0004FF0A04600F5E073920046F82320CB7815
:1058D000ABB96AB2083A1444097894F8502042EA05
:1058E000811284F850201846F0BD830003F1A043D4
:1058F000D3F8002722F00202C3F80027E7E76BB2D3
:105900009B0003F1804303F5C0430A78D3F81015D8
:1059100021F4473121F44071C3F81015120400023C
:1059200002F44031D3F8104500F4F8520A43224300
:10593000C3F810250020F0BD082685F830603346F6
:10594000C4F820C03546B5E7002385F83030C4F8E8
:1059500000C01D46B1E700BFDC1E0020F0B42E4D94
:105960002E1882B096F8302053B2072B1CDD2B4442
:1059700093F848309B09032B40D0012B0CBF4FF408
:1059800000314FF44031800000F1A040D0F80027F2
:1059900022F44032C0F80027D0F800370B43C0F89B
:1059A000003702B0F0BC7047072AFAD8980000F11F
:1059B000804000F5C04003F140029200D0F810454D
:1059C00092B202F18042002744F0010402F5C04285
:1059D000C0F810450197019817600029E1D096F9A9
:1059E000302055F82220002ADBD001220B4902FA90
:1059F00003F3C1F8043302B0F0BC70474FF0A0438A
:105A0000D3F81035C34013F0010F14BF4FF44031E9
:105A10004FF40031B7E700BFDC1E002000600040FB
:105A20004FF0A043D3F8103523FA00F000F0010046
:105A3000704700BF2DE9F04786B00026A24B0196C3
:105A40001A68012A00F03281A04B1A68012A00F07E
:105A50001F819F4B1A68012A00F00C819D4B1A6828
:105A6000012A00F0F9809C4B1A68012A00F0E680B8
:105A70009A4B1A68012A00F0D380994B1A68012AC0
:105A800000F0C080974B1A68012A00F0AD80964B59
:105A90001A68012A00F09B8016F0FF0F1AD0934F6E
:105AA00001250024A30003F18043354203F5C043E0
:105AB0004FEA45050BD0D3F8100557F82420D3F84A
:105AC0001015C0F30420C1F3014102B19047013425
:105AD000082CE7D1002E02DB06B0BDE8F087844D2C
:105AE00000224FF0FF33A5F1530702920393814C3C
:105AF0004FF00008012614F8011FFF292BD0C9B26E
:105B000021F0C00006AB4FEAD00E03EB0E0201F00D
:105B1000070312F80CCC06FA03F31CEA030F1AD0A1
:105B200007EB000C89099CF930C057F82CC0BCF178
:105B3000000F3CD003293CD04FEA800E0EF1A04E5E
:105B400012F8149CDEF8002719EA030FC2F3014291
:105B500011D1032A36D0AC42CDD1B8F1000FBBD061
:105B60004FF0A043019AD3F810359342B4D0029A73
:105B700001930392BBE7022AEDD1032904D0BCF1C3
:105B8000000FE8D0E047E6E74FF44039DEF80027A1
:105B900022F44032CEF80027DEF8003708F1010881
:105BA00049EA03035FFA88F8CEF80037E7E70329EC
:105BB000D1D10DF1080A1AF80E9049EA03090AF842
:105BC0000E90B9E70329DAD14FF40039DEE700225D
:105BD0001A601B6805934FF0A043059AD3F810355F
:105BE000019346F0004657E7434AD2F804231206D1
:105BF0007FF54DAF00221A601B680493049B46F0AA
:105C0000800644E73C4AD2F8042351067FF53AAFB8
:105C100000221A601B680493049B46F0400631E79B
:105C2000354AD2F8042390067FF527AF00221A6088
:105C30001B680493049B46F020061EE72E4AD2F808
:105C40000423D4067FF514AF00221A601B68049366
:105C5000049B46F010060BE7274AD2F804231507E9
:105C60007FF501AF00221A601B680493049B46F085
:105C70000806F8E6204AD2F8042357077FF5EEAE6F
:105C800000221A601B680493049B46F00406E5E6B4
:105C9000194AD2F8042392077FF5DBAE00221A607E
:105CA0001B680493049B46F00206D2E61249D1F821
:105CB000041311F0010105D01E601B680493049BBE
:105CC0001646C1E60E46BFE6006100400461004092
:105CD000086100400C610040106100401461004008
:105CE000186100401C6100407C610040DC1E002007
:105CF0002F1F00202B1F002000600040F0B59B4CA0
:105D0000237F8FB0002B75D1994AD2F804138905EF
:105D100048D4974BD3F80423520704D5D3F808216D
:105D2000002A40F0CA80924BD3F81C21C2B1A28A4B
:105D3000A07D8E4992B282424FF00002C3F81C212E
:105D400080F0A980D3F81C210692069A888A8A8A54
:105D50008D6880B20132285C92B28A82C3F81C0539
:105D6000834BD3F84421DAB10022C3F84421D3F89D
:105D70004411A27E04910499002A40F08980E27DBA
:105D80007A4B6AB10022587ED968DA7501228DF803
:105D900030000B918DF828200AA893E80600904760
:105DA0000FB0F0BDD2F824110029B2D0C2F82431CE
:105DB000D2F82411A37E07914FF401710798C2F81D
:105DC00008130BB901235360694A02238DF8283068
:105DD000D2F88034C2F88034E07DE2680D9300236D
:105DE0008DF83000E375237621680B9263680AA86A
:105DF000984798E75E4BD3F82421002A40F093801F
:105E0000D3F8101161B1C3F81021D3F81011039128
:105E10000399D3F83C15E07DC9B2884200F0AA800E
:105E2000534BD3F84421B2B10022C3F84421D3F834
:105E30004411E07D019101994C4960B1D3F83C35A2
:105E4000C8688DF830300123CA750B908DF8283062
:105E50000AA80AC99847464BD3F82021002A9FD0A8
:105E60000022C3F82021D3F82011A07D00910099D1
:105E70003E49002894D0D3F84C058B688DF830004B
:105E80008A750B938DF828200AC90AA8984787E7D6
:105E900001221A6073E7D3F81C310593059B002893
:105EA0003FF45EAF8B688DF830008A750B938DF8E8
:105EB00028200AC90AA8984752E7E17D2B4A002901
:105EC00070D00021C3F80811D3F80811089108997F
:105ED000D068517ED3F818354354537ED17D0133B9
:105EE000DBB25376627E214B8A427FF41CAF1A7E6E
:105EF000002A6DD19B7E13B91D4B01225A601C4AAA
:105F0000E06863684FF40171C2F80813627E8DF88F
:105F10003020002501220B902168E5758DF828209E
:105F20000AA89847FFE60022C3F82421D3F82411D9
:105F3000029102218DF828100299D3F88014C3F839
:105F400080140D91D3F83C15E368E27522768DF844
:105F500030100B93216863680AA89847044BD3F864
:105F60004421002A3FF477AF5EE700BF341F0020D2
:105F700000200040217EF1B1D3F80072E17527F0D6
:105F80002001E6682569C3F8001201238DF830006E
:105F90008DF82830227621680B96E56063680AA8A0
:105FA00098473DE7C3F80811D3F808210992099AE8
:105FB000D3F8183596E7E268E17501238DF83000D3
:105FC0008DF828300B9294E80A000AA8984727E732
:105FD000DE685D7E1869DA7501210022D8601A76C4
:105FE0005A768DF828100B968DF8305093E80600FD
:105FF0000AA8904797E600BF0220FDF7BBB900BF93
:106000002DE9F0470D460646FDF7E4F9032804465E
:106010001DD8012D1FD00ED3022D1AD11C4B00EB21
:1060200040041C44657895B11A4B1B687BB1284627
:10603000BDE8F04718471848FEF788FD1449174A8D
:1060400004EB44030B44155D9B789D42EBD0BDE807
:10605000F087BDE8F087DFF8388047003B1808EB91
:10606000030218F8035053782BB9274447440B4BCD
:10607000BA781A55D7E7DFF8289007484A464FF410
:106080000041FEF709FD0028EFD189F80060ECE738
:10609000CC1F0020801F0020841F0020C81F00206C
:1060A0007D1F002010B50078FDF794F903280BD868
:1060B000064B00EB40001844407828B1044B1B68A5
:1060C00013B1BDE81040184710BD00BFCC1F002021
:1060D000801F0020B34B1B68DB0700D4704770B5EE
:1060E000B14EB24D33782C78FBB9172C1CD8DFE8B1
:1060F00014F0F1001401140163007600830096008F
:106100005D0039002C0039002C00A300A800A80075
:10611000A800A800A800CE00DE000101460018007B
:106120001800FDF711F92C7070BDA14B1B780020F1
:106130003070002B00F00581FDF7E4F80120FDF739
:10614000E1F80320FDF7DEF8CFE7012318463370AE
:10615000FDF710F997484FF480410022BDE87040E8
:10616000FEF79ABC012318463370FDF703F99148F6
:1061700040F6CD410022BDE87040FEF78DBC8C4B4F
:106180001B78002B00F0FE800020FDF7BBF80120FB
:10619000FDF7B8F80320FDF7B5F80020FDF7A6F8E5
:1061A0000120FDF7A3F815232B7070BD0020FDF72B
:1061B0009DF807232B7070BD0020FDF789F800289B
:1061C00000F0D3800020FDF79DF846F266610323BE
:1061D0002B7078480022BDE87040FEF75DBC0020BF
:1061E000FDF776F8002800F0C5800020FDF78AF85A
:1061F0004FF400310423EBE70020FDF769F8002895
:1062000000F0BD800020FDF77DF805232B70694864
:1062100041F69A110022BDE87040FEF73DBC002017
:10622000FDF7A8F806232B70624840F6CD41002206
:10623000BDE87040FEF730BCFDF786F80C232B70EC
:1062400070BD5D48FEF782FCD4F1110405467BD099
:10625000002879D1012C13D0C82303FB04F44FF498
:10626000FA704FF400430021C3FB04014FF47A722B
:10627000002301F0C5FC2A4601464F48FEF70CFCFE
:106280000220FDF733F84A4B01221A7070BD484BCB
:106290001B78002B79D00020FDF734F80120FDF7A2
:1062A00031F80320FDF72EF812232B7070BD404B00
:1062B0001B78002B6FD00020FDF724F80120FDF79C
:1062C00021F80320FDF71EF80020FDF70FF8132337
:1062D0002B7070BD364B1B78002B59D00020FDF77A
:1062E00011F80120FDF70EF80320FDF70BF800234D
:1062F0002B7070BD2E4B1B78002B4FD00020FDF76C
:1063000001F80120FCF7FEFF0320FCF7FBFF012052
:10631000FCF7ECFF14232B7070BD0020FCF7D8FFB6
:10632000C8B10020FCF7EEFF022C4EF2666118BFE8
:106330004FF400312C701F480022BDE87040FEF77A
:10634000ABBBFCF7EBFFD0E60220FCF7DBFF184B02
:1063500000221A7070BDFCF7C9FF41F69A1343F290
:106360003331022C08BF1946E4E7FCF7BFFF41F6C2
:106370009A112CE7FCF7BAFF43F233313AE7FCF706
:10638000B5FF42E7FCF7CAFF07E7FCF7C7FF8BE75B
:10639000FCF7C4FFABE7FCF7C1FF95E7FCF7BEFFD6
:1063A000B5E700BF781F00207C1F0020A41F00203D
:1063B000741F0020541F0020A81F002038B5C44BB4
:1063C0001B6813F0010401D1204638BDC14C23786D
:1063D0000546E3B9172D00F27881DFE815F00B01CF
:1063E0003101310169007D009100A5005B0035009D
:1063F000280035002800B300BA00BA00BA00BA007D
:10640000BA00E300F6001C01420063006300B24BD7
:106410001B7800202070002B00F02781FCF772FF12
:106420000120FCF76FFF0320FCF76CFFD2E701238C
:1064300018462370FCF79EFFA8484FF480410022C5
:10644000BDE83840FEF728BB012318462370FCF74F
:1064500091FFA24840F6CD410022BDE83840FEF74A
:106460001BBB9D4B1B78002B00F020810020FCF70C
:1064700049FF0120FCF746FF0320FCF743FF002003
:10648000FCF734FF0120FCF731FF954B15221A7001
:10649000002499E70020FCF729FF914B07221A708E
:1064A000002491E7FCF750FF8D4B00241D708BE713
:1064B0000020FCF70DFF002800F0E1800020FCF731
:1064C00021FF46F26661864B844803241C7000223B
:1064D000BDE83840FEF7E0BA0020FCF7F9FE0028DE
:1064E00000F0DC800020FCF70DFF4FF400317C4B06
:1064F0007A4804241C700022BDE83840FEF7CCBA6C
:106500000020FCF7E5FE002800F0CD800020FCF71D
:10651000F9FE734B714805241C7041F69A11002254
:10652000BDE83840FEF7B8BA0020FCF723FF6C4BFB
:106530006A4806241C7040F6CD410022BDE8384070
:10654000FEF7AABAFCF700FF654B0C221A70002474
:106550003AE76448FEF7FAFAD5F11105044600F06F
:106560008780002840F08480012D14D0C82303FBCD
:1065700005F54FF4FA704FF400430021C3FB050109
:106580004FF47A72002301F03BFB22460146554846
:10659000FEF782FA04460220FCF7A8FE4E4B0122C9
:1065A0001A7011E74C4B1B78002B00F08280002002
:1065B000FCF7A8FE0120FCF7A5FE0320FCF7A2FED5
:1065C000474B12221A700024FEE6434B1B78002B27
:1065D00075D00020FCF796FE0120FCF793FE032007
:1065E000FCF790FE0020FCF781FE3D4B13221A7051
:1065F0000024E9E6384B1B78002B5DD00020FCF727
:1066000081FE0120FCF77EFE0320FCF77BFE344B6D
:1066100000241C70D8E6304B1B78002B52D0002091
:10662000FCF770FE0120FCF76DFE0320FCF76AFE0C
:106630000120FCF75BFE2A4B14221A700024C3E6EB
:106640000020FCF745FEF8B10020FCF75BFE022DB0
:106650004EF2666118BF4FF40031214B1F481D7088
:106660000022BDE83840FEF717BAFCF757FEB1E646
:106670000220FCF747FE184B00221A70A4E6FCF734
:1066800035FE41F69A111EE7FCF730FE41F69A13EB
:1066900043F23331022D08BF1946DEE7FCF726FE30
:1066A00043F2333123E7FCF721FE32E7FCF736FEF5
:1066B000E5E6FCF733FE83E7FCF730FEA7E7FCF7DF
:1066C0002DFE8FE7FCF72AFEB2E700247CE600BF30
:1066D000781F00207C1F0020741F0020541F002002
:1066E000A41F0020A81F0020F0B5214A214B1060F4
:1066F000044610F0020083B0196015D01E4B1F48ED
:106700004FF00E0E0F2710261125042140F266626D
:1067100083F800E0DF709E715D72FDF7D7FCA0B1D9
:10672000E3071DD403B0F0BDE20719D41448154A9D
:106730000021FEF79FF90028F4D11348134A0121E4
:1067400003B0BDE8F040FEF795B9FDF717FD00284E
:10675000E6D101460E4A0F48FEF78CF9E10703D552
:106760000190FCF719FE01980028DFD003B0F0BDBE
:10677000781F0020801F0020CC1F002014870200FB
:1067800010870200D560020034870200F95F020022
:10679000A56002000C8702003EDF704773DF704780
:1067A00000B5002093B0FCF7CFFE08B1FDF7FCFC6C
:1067B000FCF7BCFEFEF794F808B1FDF7F5FC0120EC
:1067C0000021FFF791FF08B1FDF7EEFC00F0DEFFBE
:1067D00008B1FDF7E9FC12AC002344F83C3D012070
:1067E000214601F099F808B1FDF7DEFC204601F0E2
:1067F00045F908B1FDF7D8FC5923ADF80030002168
:1068000017233C22214DADF804302046029501F0BB
:10681000DCF900230422204619468DF80C308DF84F
:106820000F20CDF830D000F09FFB08B1FDF7BCFC85
:10683000174C00211022204601F0C7F90325002340
:10684000A022204601212570628163602372A3810A
:10685000FFF7A4FF08B1FDF7A7FC0220FFF7AEFD8C
:1068600008B1FDF7A1FC0B4B0B491888000440F060
:106870000300FCF7EDFFFCF7D5FE0028FBD1FFF786
:106880008BFF0028F7D0FDF78FFCF4E72C170020D2
:10689000D81F0020B8170020388702002DE9F84FD4
:1068A000440004EB0008DFF87CB14FEAC8080BEBAA
:1068B00008038946D96A01298246164643D034D353
:1068C00002293CD100F1010A0AEB4A0A5D6A0BEB8E
:1068D000CA0A00271DE0126A641BB4422346A2EBD9
:1068E000050428BF33469C42DAF8040028BF1C4642
:1068F00022462844494601F05DF90BEB0803254484
:106900001A6A954208BF0025361B2744A1445D62E0
:1069100016D00BEB0802936AAB4203F1FF34DAD8CE
:10692000126A1344013B5C1BD7E79A6A5D6AAA426C
:106930009CBF1B6AD218013A521B964232D90027DB
:106940003846BDE8F88F9A6A5D6AAA4225D9571E73
:106950001B6A7F1BB74228BF37465E1BB74241D335
:106960000AF1010808EB48080BEBC808A244D8F864
:1069700004004946324628440BEBCA0BBD1B01F00C
:1069800019F9D8F8040009EB06012A4601F012F9BA
:10699000CBF824503846BDE8F88F1B6AD718013F62
:1069A0007F1BD7E704440BEBC40B00F1010ADBF8B3
:1069B00020701C4B7F1BBE420AEB4A0A25D303EB17
:1069C000CA043A46606849462844F51B01F0F2F8CB
:1069D00009EB070160682A4601F0ECF83746CBF86E
:1069E0002450ADE70AF1010303EB43030BEBC303B0
:1069F000A24458680BEBCA0B284449463A463D442A
:106A000001F0D8F8CBF824509AE703EBCA034946C3
:106A1000586832462844354401F0CCF83746CBF864
:106A200024508DE708220020F8B5114C114B124A72
:106A3000E3614FF4007E0023104FA36210266362CF
:106A4000E362A3656365E3650D49C4F820E00225B0
:106A5000A261A264E01DE76426652561656101F01D
:106A6000BCF82046074901F0B8F82023A371F8BD0F
:106A700008220020F81F002050870200E81F002095
:106A80005C870200608702006DDF704772DF70472D
:106A900079DF70477DDF704764DF7047F0B50488A9
:106AA000012C83B007D0148804F1020E9E4505D94D
:106AB0000C2003B0F0BD072003B0F0BD0578012D18
:106AC00004D1457802352544AB42F1D3023B0F4651
:106AD0001C1B02A9A4B2054621F8024D07EB0E00CB
:106AE0001646FFF7D7FF0028E3D12B78022B17D0EB
:106AF000012B11D023460821FE2BD9D83288581CEF
:106B0000B8543288013292B23280B954328801329C
:106B1000134433800020CCE76B789C42EBD2E9E74A
:106B2000BDF806309C42E5D30921E5E72DE9F04F99
:106B300085B083460E9D00882C880194BDF83C905A
:106B400000284ED000278A46164698463C4604E068
:106B5000BBF800300134A34226DDDBF8043053F8E3
:106B6000240003900DF10B0103A80022FFF794FF0E
:106B700018BB9DF80B30B342EAD10FB32A889319A2
:106B80004B4519DC424403A80DF10B010127FFF727
:106B900083FF90B92B889DF80B2013442B80BBF802
:106BA00000300134A342D8DCDFB12B88019A013BCD
:106BB0009B1A9BB2FF2B12D90C2005B0BDE8F08FB9
:106BC0002B885A1C334402334B4592B2F4DC2A80A2
:106BD00008F802A02A88013292B22A80D2E708F887
:106BE0000230002005B0BDE8F08F00BF2DE9F0476E
:106BF00000231788138090F82D3086B01446054680
:106C00000E46002B40F0C880AA78002A40F0F080A1
:106C1000EA78002A2CD1696899B1DA1CBA4209785D
:106C200022D80222F254238801339BB20A22238005
:106C3000F254238801339BB22380F154238801331B
:106C400023802B89002B40F0F7802B8A002B40F00B
:106C50000C812B8B002B40F021812B6A002B5CD008
:106C60002288911DB94218D90C2006B0BDE8F087E2
:106C7000D91CB942F8D80221F154238801339BB2C0
:106C800001212380F15423880B449BB22380F254CA
:106C900023880B449BB22380BDE71988052940F265
:106CA000C9806FF4486801EB080080B24FF27D3E66
:106CB000704540F2BF805888052840F2BB806FF4D1
:106CC000486C84441FFA8CFCF44540F2B3804FF6C4
:106CD000FF7E714504D0704502D0814200F2AA8047
:106CE0000521B1542288013292B212212280B1547E
:106CF0002288013292B222801988B1543244090AA2
:106D000051702288023292B222805B88B35432449E
:106D10001B0A53702388023323806B6A002B2BD00D
:106D2000998820880A1D0244BA429DD88A1CFE2AEE
:106D30009AD8033131542288013292B2FF21228045
:106D4000B1542288013292B222801988B15432445F
:106D5000090A51702088023080B220809A885AB186
:106D600099680393002965D0304400F023FF039B0A
:106D700022889B881344238095F82C30002B40F008
:106D8000A680287800283FF470AF28463146224676
:106D90003B46FFF783FE68E7082F7FF665AF04A840
:106DA000FFF772FE00287FF460AF23880822F254B8
:106DB000238801339BB21B222380F25420880130A8
:106DC00080B22080062230440DF1110100F0F2FE65
:106DD00023889DF8102006339BB212F0FE0218BFE4
:106DE00001222380F254238801339BB223800BE7D6
:106DF0000433BB423FF638AF04A8FFF749FE002832
:106E00007FF433AF2388BDF810200321F154238889
:106E100001339BB219212380F154238801339BB2A3
:106E2000F1182380100AF2544870238802339BB271
:106E30002380EDE6072018E705F1080802218DE818
:106E4000900040460A463346FFF770FE00287FF464
:106E50000CAF8DE890004046062110223346FFF724
:106E600065FE00287FF401AFEFE605F110088DE81C
:106E700090004046032102223346FFF757FE0028C8
:106E80007FF4F3AE8DE89000404607211022334690
:106E9000FFF74CFE00287FF4E8AEDAE605F11808AB
:106EA0008DE890004046142102223346FFF73EFE53
:106EB00000287FF4DAAE8DE89000404615211022BC
:106EC0003346FFF733FE00287FF4CFAEC5E6D5F892
:106ED0002880B8F1000FADD0B8F804200232FE2AA5
:106EE0003FF6C2AE23884FF000094FF0160A013278
:106EF000F254238801339BB2238006F803A0238831
:106F000001339BB22380B8F80020F2543344120AB4
:106F10005A70238802339BB22380B8F80410F0180B
:106F20000A4661B1D8F808301946002B82D000F02B
:106F300041FEB8F80430228813449BB2238009F143
:106F4000010995F82C205FFA89F94A4509EB4908AF
:106F50007FF617AFAA6A02EB8808B8F8042002325D
:106F6000FE2AC4D980E600BF2DE9F04794B01F2364
:106F70000D46ADF80E30044600285AD0C2785307AB
:106F800053D590F82D300021ADF80C10002B6BD1AB
:106F90008378002B40F0AB801846032114AE5F1CB1
:106FA0000233304416FA87F716FA83F64FF0020ED2
:106FB0008BB2012100F840ECADF80C3007F8401C12
:106FC00006F8402C6268B2B1D91C1F29167828D85F
:106FD00014AF581C9A1C17FA80F03B4417FA82F23F
:106FE0004FF0020E0A2703F840ECADF80C1000F841
:106FF000407C02F8406C2389002B40F08581238A75
:10700000002B40F09F81238B002B40F0B981236A35
:10701000002B00F0D880BDF80C20911D1F2940F2F4
:107020008F800C2014B0BDE8F087072014B0BDE8B5
:10703000F087ADF80C00002D00F00481EB78002BF8
:10704000F3D128460CA90DF10E02FFF7CFFD002861
:10705000ECD19DF80E300CAA20469DF80C10FFF7DD
:1070600015FD14B0BDE8F0870CAF3846FFF70CFDF6
:107070000028DBD1BDF80C3014AA03F1010C12FA80
:107080008CFC03F1020E13441FFA8EFE04AE4FF087
:1070900008094FF01B0803F8409C0DF1310106224E
:1070A00006EB0E000CF8408CADF80CE000F082FD11
:1070B000BDF80C209DF83010931D11F0FE019BB21D
:1070C00040F07C8114A8034403F8401CD31DA2782F
:1070D0009BB2ADF80C30002A40F01181E278002A12
:1070E0003FF470AFD91C1F2918469AD856E70CAF49
:1070F0003846FFF7CDFC002898D1BDF80C30BDF81C
:107100003070E278991C0DF1500E581C89B204AE13
:107110000EEB03091EFA80F0043306EB010E4FF06C
:10712000030A4FF019089BB24FEA172C09F840AC3C
:10713000ADF80C3000F8408C77548EF801C0CEE7E3
:10714000188805287FF671AF6FF4486C00EB0C06C9
:10715000B6B24FF27D37BE427FF667AF5E88052E2E
:107160007FF663AF6FF4486EB6441FFA8EFEBE45DD
:107170007FF65BAF4FF6FF77B84204D0BE4202D035
:10718000B0423FF652AF14A8561C10FA86F600EB38
:10719000020E901C80B212274FF0050C0EF840CC66
:1071A000ADF80C0006F8407C1F88ADF80C1004AE5A
:1071B0003118375404323F0A4F7092B25B88B3548F
:1071C00032441B0A5370676A9FB3B888BDF80C300D
:1071D000811C9A1C56181F2E3FF623AFFE293FF63E
:1071E00020AF14AE591C06EB030E16FA81F192B2D1
:1071F0000330FF260EF8400CADF80C2001F8406C6F
:10720000398804AEB018B154090A41700433BA8801
:1072100098B2ADF80C0062B1B96800293FF405AF2F
:10722000304400F0C7FCBDF80C30BA881344ADF808
:107230000C3094F82C3053B904AE2378002B53D182
:107240003446F8E62B46ADF80E502A4604E7A76A06
:10725000002F3FF4EAAEB9880231FE293FF6E1AED5
:107260009E46BDF80C304FF0000804AE4FF01609F2
:1072700014AA581C02EB030C12FA80F09A1C92B26A
:1072800001310CF8401CADF80C2000F8409C398806
:10729000B1543244090A51700433B9889BB20A468A
:1072A000F018ADF80C3079B1BB681946002B3FF4EB
:1072B000BCAE00F07FFCBDF80C30BA8894F82CE02E
:1072C00013449BB2ADF80C3008F101085FFA88F85E
:1072D000F04508EB4802B0D2A76A07EB8207B988ED
:1072E0000231FE29C4D99CE62046314603AA1F2359
:1072F000FFF7D4FB00287FF499AE34469BE60433B5
:107300001F2B3FF68EAEF3E603AA04F1080704AE86
:107310004FF01F0802218DE80401384633460A4623
:10732000FFF704FC00287FF481AE03AB8DE8080171
:107330003846334606211022FFF7F8FB00287FF479
:1073400075AE5CE603AA04F1100704AE4FF01F0807
:107350008DE804013846334603210222FFF7E6FB9D
:1073600000287FF463AE03AB8DE80801384633464E
:1073700007211022FFF7DAFB00287FF457AE42E620
:1073800003AA04F1180704AE4FF01F088DE80401AA
:107390003846334614210222FFF7C8FB00287FF449
:1073A00045AE03AB8DE8080138463346152110225F
:1073B000FFF7BCFB00287FF439AE28E614A90B4484
:1073C000012103F8401C81E60649074A074B9B1A36
:1073D00003DD043BC858D050FBDC00F013F8FBF78A
:1073E0003DFF0000408B02002017002024180020E1
:1073F000FEE7FEE7FEE7FEE7FEE7FEE7FEE7FEE765
:10740000FEE7FEE7F0B4AF4B1B78062B1BD0AE4A6D
:10741000D2F8883043F47003C2F88830BFF34F8F3E
:10742000BFF36F8F4FF01023D3F80022002AC0F271
:107430007381D3F80432002BC0F26E81A34BA44AAF
:107440001A60F0BC7047A34B1B681907DFD1A24B31
:107450001B6803F0F002302A00F08E8003F0E00396
:10746000402B00F089809C4B1B6803F0F003302B0D
:1074700000F09280984B1B6803F0F002302A6BD02A
:1074800003F0E003402B67D0934B1B6803F0F0033D
:10749000302B00F00681904B1B6803F0F002302A7D
:1074A00047D003F0E003402B43D08B4B1B6803F025
:1074B000F003302B00F0E780874B1B6803F0F003EC
:1074C000302B77D0844B1B6803F0F003502B00F077
:1074D0008880814B1B6803F0F002302A18D003F03B
:1074E000E003402B14D07C4B1B6803F0F002302AE1
:1074F00003D003F0E003402B89D14FF08042D2F853
:107500000034DB0783D56FF00103C2F800347EE757
:10751000724B734A1B6803F04F031360694B1B786F
:10752000062B7FF474AF6B4B1B6819077FF46FAFAA
:10753000D9E74FF080430022C3F80C21C3F8102193
:10754000C3F838255F4B1B78062BE7D1614B1B68CE
:107550001E077FF45CAFA8E7624B5A4A1B6812789B
:107560006149C3F34233062A0B602FD1594B1B6884
:107570001B077FF44CAF87E75C4B524A1B681278BD
:107580005B49C3F30423062A0B60DBD1514B1B6814
:107590001A073FF468AF3AE74A4B564A1B785649F8
:1075A0001160062B7FF433AF4A4B1B681A077FF438
:1075B0002EAF5FE7514E524C5249534B05270125E0
:1075C00000203F223760256008601A603D4B1B7821
:1075D000062B7FF41CAF3F4B1B681C077FF417AFD3
:1075E00070E74FF08052494BD2F80414C3F82015CD
:1075F000D2F80814C3F82415D2F80C14C3F82815CF
:10760000D2F81014C3F82C15D2F81414C3F830159E
:10761000D2F81814C3F83415D2F81C14C3F8401566
:10762000D2F82014C3F84415D2F82414C3F848152E
:10763000D2F82814C3F84C15D2F82C14C3F85015FE
:10764000D2F83014C3F85415D2F83414C3F86015C6
:10765000D2F83814C3F86415D2F83C14C3F868158E
:10766000D2F84014C3F86C151649D2F84424C3F874
:1076700070250B78062B7FF4CAAE164B1B681807D3
:107680007FF4C5AE25E70F4B214A1B780321062B5B
:1076900011607FF4BCAE0F4B1B681D077FF4B7AEC3
:1076A0000AE71C49074BCA681B7822F08072062B38
:1076B000CA607FF4ACAE074B1B681F077FF4A7AE10
:1076C000E9E600BFE00F00F000ED00E04417002005
:1076D0000090D003E40F00F0E80F00F05802001013
:1076E000E40E0040440200103C050040240300105A
:1076F0004035014074C007400DF0ADBA105600404F
:1077000088560040185600401456004000C0004003
:10771000A0050040F0ED00E0184B0122C3F804255D
:10772000D3F80024002AFBD04FF010231522134970
:10773000C3F80022D1F80034002BFBD04FF0102307
:1077400015220E49C3F80422D1F800240B4B002A5D
:10775000FAD00022C3F80425D3F80024002AFBD075
:10776000BFF34F8F0649074BCA6802F4E062134328
:10777000CB60BFF34F8F00BFFDE700BF00E00140CB
:1077800000ED00E00400FA0510DF704770B5354CDD
:10779000237884B013B1082004B070BD324D334952
:1077A000012302A82B70FDF79BFE039B5BB11A68B7
:1077B0005968002090470028EED002A8FDF79AFEF5
:1077C000039B002BF3D102A82949FDF789FE039BF7
:1077D0004BB11A6859680020904702A8FDF78AFE4D
:1077E000039B002BF5D1234B23491868019001A876
:1077F000FFF7CAFF0028CFD1204A214E2870E0238E
:1078000001212170307082F8163382F8153392F816
:1078100016335B09991E052919D8042B17D0194B6B
:107820009968C9B94FF48003136002A81049FDF7A5
:1078300057FE039B4BB11A6859680120904702A874
:10784000FDF758FE039B002BF5D10020A4E742F280
:107850000200FCF7A9FCE8E71A6842F480021A600B
:10786000E3E700BFF8210020F92100206C87020027
:107870007887020068870200C941020000E100E049
:10788000FA210020FC210020014B1878704700BF2E
:10789000F821002000B583B068460849FDF720FEB6
:1078A000019B43B158681A6890476846FDF722FE6D
:1078B000019B002BF6D103B05DF804FB8C8702001E
:1078C00060DF704769DF704761DF704710B53824AB
:1078D00092B004A80DF10601ADF80640FFF7F4FFE1
:1078E00088B902A80B49FDF7FBFD039B002BF0D0E4
:1078F0001A68596804A8904702A8FDF7FBFD039B8E
:10790000002BF5D1E5E7052801D0FCF74DFC12B0BE
:1079100010BD00BF9887020070B50C4684B00029E6
:1079200074D04F4B0B60054600210C2201A800F0DB
:107930004CF90126032301A9202022688DF8045068
:107940008DF80660ADF80830FFF7BCFF002860D165
:1079500000210C2201A800F038F90023402001A9E1
:1079600022688DF804308DF805308DF80630FFF769
:10797000A9FF78BB00210C2201A800F026F9002302
:10798000012001A922688DF80430FFF79BFF002831
:1079900058D100210C2201A800F017F9F823A120EA
:1079A00001A922680193FFF78DFF00283DD1002136
:1079B0000C2201A800F009F99DF8043022686FF349
:1079C000000301A9A0208DF80430FFF77BFF70B9F8
:1079D00004B070BD234B1D88FDF798FD2D0445F0C4
:1079E0000105024620492846FBF7F0FFC2E71D4B80
:1079F0001C88FDF78BFD240444F0010402461B495A
:107A00002046FBF7E3FF002004B070BD0E2004B059
:107A100070BD144B1D88FDF779FD2D0435430246DA
:107A200013492846FBF7D2FF92E70E4B1D88FDF75E
:107A30006DFD2D0445F0010502460E492846FBF771
:107A4000C5FFB4E7074B1D88FDF760FD2D0445F029
:107A50000105024608492846FBF7B8FF99E700BF31
:107A600020170020F4170020EC870200D8880200BD
:107A7000A48702008488020038880200F8B5044612
:107A80000668FFF71DFF2368B342054618D0144F60
:107A9000144938880004324640F00200FCF75CF8D4
:107AA0004FF080533888D3F80C3122680E499B027E
:107AB000000403F1005340F002009A1AFBF786FF1E
:107AC00065B1074B28461C88FDF720FD240444F0CF
:107AD0000104024605492046FBF778FF2846F8BD19
:107AE000F41700202C8902005C89020080890200C2
:107AF00048DF704700B585B001A8FFF7F9FFA8B9C6
:107B000002A80E49FDF7ECFC039B002BF4D01A6889
:107B100059680198904702A8FDF7ECFC039B002BE5
:107B2000F5D101A8FFF7E4FF0028E9D0052801D02E
:107B3000FCF73AFB05B05DF804FB00BFAC8902001E
:107B400008B5074B044613B10021AFF30080054B85
:107B50001868836A03B19847204600F04FF800BFC9
:107B600000000000C88A020070B50E4B0E4CE41AEB
:107B7000A41000251E46A54204D056F8253098478B
:107B80000135F8E700F00AFB084C094BE41AA41091
:107B900000251E46A54204D056F8253098470135E9
:107BA000F8E770BDAC170020AC170020B01700201C
:107BB000AC17002010B5431E0A44914204D011F8BE
:107BC000014B03F8014FF8E710BD0244034693420E
:107BD00002D003F8011BFAE77047034611F8012BA6
:107BE00003F8012B002AF9D17047034613F8012B43
:107BF000002AFBD1181A013870470000FEE700BFC9
:107C000053B94AB9002908BF00281CBF4FF0FF3103
:107C10004FF0FF3000F03CB882B0EC462DE9005048
:107C200000F01EF8DDF804E002B00CBC704700BFA5
:107C30002DE9F041069C154606460F46984600F091
:107C400029F805FB01F300FB0838A5FB0023B21A55
:107C5000434467EB0303C4E90023BDE8F08100BFA0
:107C60002DE9F041069C904606460F461D4600F061
:107C70005FF900FB05F5A0FB082308FB0155B21ACC
:107C80002B4467EB0303C4E90023BDE8F08100BF88
:107C9000704700BF00292DE9F043C0F2A6800026FE
:107CA000002BC0F29C80884694469E4615460446AA
:107CB0000F46002B3DD18A4259D9B2FA82F33BB12B
:107CC000C3F120029F4020FA02F29D4017439C40DE
:107CD000290C220CB7FBF1FEA8B201FB1E7742EA89
:107CE000074700FB0EF3BB420AD97F190EF1FF32A2
:107CF00080F00581BB4240F20281AEF1020E2F44BA
:107D0000FF1AA4B2B7FBF1F301FB137744EA07476C
:107D100000FB03F0B84208D97F1903F1FF3280F06D
:107D2000F080B84240F2ED80023B43EA0E4300226D
:107D300003E08B420FD900221346341C18BF0124E4
:107D400060424FF0000565EB450158405140001975
:107D50006941BDE8F083B3FA83F2002A40F08680DF
:107D60008B4202D3844500F2DB800123E5E712B9A0
:107D70000123B3FBF2F5B5FA85F000283BD1781B5F
:107D80004FEA154E1FFA85FC0122B0FBFEF8210CCC
:107D90000EFB180741EA07470CFB08F3BB4207D963
:107DA0007F1908F1FF3102D2BB4200F2BD80884644
:107DB000FF1AA4B2B7FBFEF30EFB137744EA0747A2
:107DC0000CFB03FCBC4507D97F1903F1FF3102D23C
:107DD000BC4500F2A7800B4643EA0843ADE7524298
:107DE0006FEA060663EB43035DE7404261EB410146
:107DF0004FF0FF3654E7C0F1200224FA02F107FAEF
:107E000000F385404FEA154ED7401943B7FBFEF209
:107E10000B0C0EFB12771FFA85FC43EA07430CFBA1
:107E200002F79F4204FA00F407D95B1902F1FF3010
:107E300074D29F4272D9023A2B44DF1B89B2B7FB3E
:107E4000FEF80EFB187341EA03430CFB08F79F4250
:107E500008D95B1908F1FF315CD29F425AD9A8F1C9
:107E600002082B44D81B48EA02428EE7C2F12003E5
:107E70002CFA03F10EFA02FE20FA03F741EA0E0E85
:107E800008FA02F028FA03F14FEA1E453843B1FB25
:107E9000F5F8030C05FB18111FFA8EF743EA0141B0
:107EA00007FB08F38B420CFA02FC09D911EB0E0117
:107EB00008F1FF3930D28B422ED9A8F10208714463
:107EC000C91A80B2B1FBF5F305FB131140EA014179
:107ED00007FB03F78F4208D911EB0E0103F1FF30C6
:107EE00016D28F4214D9023B714443EA0843C91B9E
:107EF000A3FB0C89494509D305D000221DE796460E
:107F0000FEE6134611E794404445F6D2013BF4E700
:107F10000346EAE78846A5E7C846D1E702468CE76C
:107F200013460AE7023B57E7A8F102082F443FE750
:107F30002DE9F041002B44D18A42154604464FD921
:107F4000B2FA82F70E464FB1C7F12003B94020FACA
:107F500003F602FA07F50E4300FA07F44FEA154E4E
:107F6000230CB6FBFEF0AFB20EFB106143EA0143F7
:107F700007FB00F1994209D95B1900F1FF3280F04B
:107F8000EC80994240F2E98002382B445A1AA4B29C
:107F9000B2FBFEF30EFB132244EA024207FB03F797
:107FA000974208D9521903F1FF3180F0D8809742E7
:107FB00040F2D580023B43EA004000263146BDE84E
:107FC000F0818B4247D8B3FA83F6002E48D18B421A
:107FD00002D3824200F2CD8001203146BDE8F0811B
:107FE00012B90125B5FBF2F5B5FA85F8B8F1000F25
:107FF00077D14A1B4FEA154EAFB20126B2FBFEF015
:10800000230C0EFB102143EA014107FB00F38B42D6
:1080100007D9491900F1FF3202D28B4200F2BA802F
:108020001046C91AA4B2B1FBFEF30EFB131144EAC9
:10803000014407FB03F7A74208D9641903F1FF3293
:1080400080F08F80A74240F28C80023B43EA0040E0
:108050003146BDE8F081002630463146BDE8F0816A
:10806000C6F1200422FA04F5B3402B4320FA04FCA5
:1080700001FA06F721FA04F54FEA134E4CEA070716
:10808000B5FBFEF8390C0EFB18551FFA83FC41EACC
:1080900005450CFB08F1A94202FA06F204D9ED18D5
:1080A00008F1FF3467D3A0466D1ABFB2B5FBFEF4EA
:1080B0000EFB145547EA05410CFB04FC8C4504D922
:1080C000C91804F1FF355CD32C4644EA0844CCEBD4
:1080D0000101A4FB0223994248D344D02046002644
:1080E0006CE7C8F1200401FA08F305FA08F520FA54
:1080F00004F7E1404FEA154E1F43B1FBFEF63A0C80
:108100000EFB16111FFA85FC42EA01430CFB06F236
:108110009A4200FA08F407D95B1906F1FF3137D209
:108120009A4235D9023E2B449B1ABFB2B3FBFEF0F4
:108130000EFB103347EA03430CFB00F1994207D9C9
:108140005B1900F1FF3221D299421FD902382B442A
:108150005A1A40EA0646674650E7104616E70B46AD
:1081600029E7134672E7B0409042B7D2601E00265E
:1081700024E7304622E7A94295D9A8F102081D4418
:1081800092E78C45A0D9023C19449EE71046DFE7F0
:108190000E46C9E70238294443E700BFF8B500BFDF
:1081A000F8BC08BC9E467047F8B500BFF8BC08BCD8
:1081B0009E4670471112131401340200FD33020071
:1081C000F933020061707000A01C0020A81C002080
:1081D000B01C0020B01C00201800000000000000AF
:1081E000848202008C820200948202009C8202003F
:1081F00024820200448202004C8202005482020067
:108200005C820200648202006C82020074820200BE
:108210007C820200257300003C25733E2025733AC2
:10822000200000001B5B306D000000000D0A000004
:108230002025303278000000202020007C00000043
:10824000256300001B5B313B33306D001B5B313B12
:1082500033316D001B5B313B33326D001B5B313BB7
:1082600033336D001B5B313B33346D001B5B313BA3
:1082700033356D001B5B313B33366D001B5B313B8F
:1082800033376D006572726F720000007761726E35
:10829000696E6700696E666F000000006465627554
:1082A000670000007C1D0020466174616C206572CF
:1082B000726F720053797374656D207265736574A3
:1082C0000000000062616C6C6F630000303132337B
:1082D0003435363738394142434445467077725F0A
:1082E0006D676D74000000004E52465F5355434366
:1082F000455353004E52465F4552524F525F5356BC
:10830000435F48414E444C45525F4D495353494E9B
:10831000470000004E52465F4552524F525F534F46
:1083200046544445564943455F4E4F545F454E4180
:10833000424C4544000000004E52465F4552524FA9
:10834000525F494E5445524E414C00004E52465FDA
:108350004552524F525F4E4F5F4D454D0000000059
:108360004E52465F4552524F525F4E4F545F464FFA
:10837000554E44004E52465F4552524F525F4E4F4B
:10838000545F535550504F52544544004E52465F2F
:108390004552524F525F494E56414C49445F5041FD
:1083A00052414D004E52465F4552524F525F494E28
:1083B00056414C49445F5354415445004E52465F28
:1083C0004552524F525F494E56414C49445F4C45CD
:1083D0004E475448000000004E52465F4552524FEF
:1083E000525F494E56414C49445F464C4147530009
:1083F0004E52465F4552524F525F494E56414C498C
:10840000445F4441544100004E52465F4552524F32
:10841000525F444154415F53495A45004E52465FB2
:108420004552524F525F54494D454F55540000003C
:108430004E52465F4552524F525F4E554C4C0000D3
:108440004E52465F4552524F525F464F5242494448
:1084500044454E004E52465F4552524F525F494E80
:1084600056414C49445F4144445200004E52465FDD
:108470004552524F525F4255535900004E52465F8B
:108480004552524F525F4D4F44554C455F4E4F54ED
:108490005F494E495449414C5A4544004E52465F4B
:1084A0004552524F525F4D555445585F494E4954BD
:1084B0005F4641494C4544004E52465F4552524F3B
:1084C000525F4D555445585F4C4F434B5F464149B1
:1084D0004C4544004E52465F4552524F525F4D55F7
:1084E0005445585F554E4C4F434B5F4641494C45B0
:1084F000440000004E52465F4552524F525F4D5568
:108500005445585F434F4E445F494E49545F46417E
:10851000494C4544000000004E52465F4552524FC0
:10852000525F4D4F44554C455F414C524541445973
:108530005F494E495449414C495A454400000000A6
:108540004E52465F4552524F525F53544F5241472D
:10855000455F46554C4C00004E52465F4552524FC7
:10856000525F4150495F4E4F545F494D504C454D0D
:10857000454E5445440000004E52465F4552524F0E
:10858000525F464541545552455F4E4F545F454EEC
:1085900041424C45440000004E52465F4552524F06
:1085A000525F4452565F5457495F4552525F4F568F
:1085B000455252554E0000004E52465F4552524FB2
:1085C000525F4452565F5457495F4552525F414E85
:1085D00041434B004E52465F4552524F525F445208
:1085E000565F5457495F4552525F444E41434B00DA
:1085F00000000000E882020001000000F482020096
:10860000020000001483020003000000388302000F
:10861000040000004C83020005000000608302009B
:108620000600000074830200070000008C83020033
:1086300008000000A483020009000000BC830200BF
:108640000A000000D88302000B000000F083020043
:108650000C000000088402000D0000001C840200D1
:108660000E000000308402000F0000004084020071
:108670001000000054840200110000006C8402000D
:10868000800000007C840200810000009C840200C5
:1086900082000000B884020083000000D48402003D
:1086A00084000000F48402008500000018850200A8
:1086B00086000000408502009000000058850200FE
:1086C0009100000078850200008200009885020079
:1086D00001820000B885020002820000D4850200F9
:1086E000556E6B6E6F776E206572726F7220636F5E
:1086F00064650000636C6F636B0000006770696FF6
:10870000746500007561727400000000841F002011
:10871000541F00200D000300016002000E00030042
:10872000016002000F00030001600200100003005E
:1087300001600200A81F0020426561636F6E206522
:1087400078616D706C6520737461727465642E005D
:108750005465726D696E616C0000000052545400E3
:10876000534547474552000001000007208B020097
:10877000208B020008000000208B0200288B0200E2
:10878000080000006E72665F73646800288B020048
:10879000388B020008000000D88A0200D88A020044
:1087A0000800000073645F626C655F6366675F73F7
:1087B000657428292072657475726E65642025734E
:1087C000207768656E20617474656D7074696E677A
:1087D00020746F2073657420424C455F434F4E4EAA
:1087E0005F4346475F4741502E00000073645F625D
:1087F0006C655F6366675F736574282920726574B2
:1088000075726E6564202573207768656E206174CB
:1088100074656D7074696E6720746F207365742061
:10882000424C455F4741505F4346475F524F4C457E
:108830005F434F554E542E0073645F626C655F63F7
:1088400066675F73657428292072657475726E653A
:1088500064202573207768656E20617474656D707F
:1088600074696E6720746F2073657420424C455F95
:10887000434F4D4D4F4E5F4346475F56535F5555EF
:1088800049442E0073645F626C655F6366675F7363
:10889000657428292072657475726E65642025736D
:1088A000207768656E20617474656D7074696E6799
:1088B00020746F2073657420424C455F47415454C7
:1088C000535F4346475F415454525F5441425F53A4
:1088D000495A452E0000000073645F626C655F6357
:1088E00066675F73657428292072657475726E659A
:1088F00064202573207768656E20617474656D70DF
:1089000074696E6720746F2073657420424C455FF4
:1089100047415454535F4346475F5345525649437A
:10892000455F4348414E4745442E000052414D208B
:1089300073746172747320617420307825782C20F0
:1089400063616E2062652061646A7573746564207A
:10895000746F20307825782E0000000052414D20A1
:1089600073697A652063616E2062652061646A754F
:108970007374656420746F20307825782E000000B1
:1089800073645F626C655F656E61626C6528292047
:1089900072657475726E65642025732E0000000088
:1089A0006E72665F7364685F626C6500D08A0200F5
:1089B000D88A0200080000006E72665F7364685F08
:1089C000736F6300002020202020202020202828F2
:1089D000282828202020202020202020202020207F
:1089E00020202020208810101010101010101010BF
:1089F00010101010100404040404040404040410EF
:108A0000101010101010414141414141010101017C
:108A10000101010101010101010101010101010146
:108A20001010101010104242424242420202020252
:108A30000202020202020202020202020202020216
:108A400010101010200000000000000000000000C6
:108A50000000000000000000000000000000000016
:108A60000000000000000000000000000000000006
:108A700000000000000000000000000000000000F6
:108A800000000000000000000000000000000000E6
:108A900000000000000000000000000000000000D6
:108AA00000000000000000000000000000000000C6
:108AB00000000000000000000000000000000000B6
:108AC00000000000004300004C17002000000000E0
:088AD0007955020000000000CE
