:1000000000000120D1020000F9020000FB02000004
:10001000FD020000FF0200000103000000000000DC
:1000200000000000000000000000000003030000CA
:1000300005030000000000000703000009030000A2
:100040000B0300000B0300000B0300000B03000078
:100050000B0300000B0300000B0300000B03000068
:100060000B0300000B0300000B0300000B03000058
:100070000B0300000B0300000B0300000B03000048
:100080000B0300000B0300000B0300000B03000038
:100090000B0300000B0300000B0300000B03000028
:1000A0000B0300000B0300000B0300000B03000018
:1000B0000B0300000B030000000000000000000024
:1000C0000B0300000B0300000B0300000B030000F8
:1000D0000B0300000B0300000B03000000000000F6
:1000E0000000000000000000000000000000000010
:1000F0000000000000000000000000000000000000
:1001000000000000000000000000000000000000EF
:1001100000000000000000000000000000000000DF
:1001200000000000000000000000000000000000CF
:1001300000000000000000000000000000000000BF
:1001400000000000000000000000000000000000AF
:10015000000000000000000000000000000000009F
:10016000000000000000000000000000000000008F
:10017000000000000000000000000000000000007F
:10018000000000000000000000000000000000006F
:10019000000000000000000000000000000000005F
:1001A000000000000000000000000000000000004F
:1001B000000000000000000000000000000000003F
:1001C000000000000000000000000000000000002F
:1001D000000000000000000000000000000000001F
:1001E000000000000000000000000000000000000F
:1001F00000000000000000000000000000000000FF
:1002000010B5054C237833B9044B13B10448AFF350
:1002100000800123237010BD70000020000000004A
:10022000BC070000084B10B51BB108480849AFF3E4
:1002300000800848036803B910BD074B002BFBD0B2
:10024000BDE81040184700BF00000000BC070000D8
:10025000740000206C00002000000000154B002BF3
:1002600008BF134B9D46A3F5803A00218B460F46ED
:100270001348144A121A00F085FA0F4B002B00D0D5
:1002800098470E4B002B00D0984700200021040017
:100290000D000D48002802D00C48AFF3008000F09C
:1002A0004BFA2000290000F0F3F900F031FA00BF0A
:1002B0000000080000000120000000000000000015
:1002C000700000208C0000200000000000000000F2
:1002D0000649074A074B9B1A03DD043BC858D05018
:1002E000FBDC00F013F8FFF7B9FF0000C8070000BF
:1002F0000000002070000020FEE7FEE7FEE7FEE7BA
:10030000FEE7FEE7FEE7FEE7FEE7FEE7F0B4AF4BF1
:100310001B78062B1BD0AE4AD2F8883043F470030A
:10032000C2F88830BFF34F8FBFF36F8F4FF01023A9
:10033000D3F80022002AC0F27381D3F80432002BD4
:10034000C0F26E81A34BA44A1A60F0BC7047A34B65
:100350001B681907DFD1A24B1B6803F0F002302A9B
:1003600000F08E8003F0E003402B00F089809C4B6E
:100370001B6803F0F003302B00F09280984B1B6851
:1003800003F0F002302A6BD003F0E003402B67D07B
:10039000934B1B6803F0F003302B00F00681904B69
:1003A0001B6803F0F002302A47D003F0E003402B33
:1003B00043D08B4B1B6803F0F003302B00F0E78039
:1003C000874B1B6803F0F003302B77D0844B1B68FE
:1003D00003F0F003502B00F08880814B1B6803F082
:1003E000F002302A18D003F0E003402B14D07C4BED
:1003F0001B6803F0F002302A03D003F0E003402B27
:1004000089D14FF08042D2F80034DB0783D56FF0FA
:100410000103C2F800347EE7724B734A1B6803F095
:100420004F031360694B1B78062B7FF474AF6B4B43
:100430001B6819077FF46FAFD9E74FF080430022A4
:10044000C3F80C21C3F81021C3F838255F4B1B7883
:10045000062BE7D1614B1B681E077FF45CAFA8E752
:10046000624B5A4A1B6812786149C3F34233062A29
:100470000B602FD1594B1B681B077FF44CAF87E7EC
:100480005C4B524A1B6812785B49C3F30423062A6B
:100490000B60DBD1514B1B681A073FF468AF3AE79A
:1004A0004A4B564A1B7856491160062B7FF433AFEE
:1004B0004A4B1B681A077FF42EAF5FE7514E524C30
:1004C0005249534B0527012500203F223760256004
:1004D00008601A603D4B1B78062B7FF41CAF3F4B26
:1004E0001B681C077FF417AF70E74FF08052494B31
:1004F000D2F80414C3F82015D2F80814C3F8241550
:10050000D2F80C14C3F82815D2F81014C3F82C151F
:10051000D2F81414C3F83015D2F81814C3F83415EF
:10052000D2F81C14C3F84015D2F82014C3F84415AF
:10053000D2F82414C3F84815D2F82814C3F84C157F
:10054000D2F82C14C3F85015D2F83014C3F854154F
:10055000D2F83414C3F86015D2F83814C3F864150F
:10056000D2F83C14C3F86815D2F84014C3F86C15DF
:100570001649D2F84424C3F870250B78062B7FF473
:10058000CAAE164B1B6818077FF4C5AE25E70F4BA4
:10059000214A1B780321062B11607FF4BCAE0F4B60
:1005A0001B681D077FF4B7AE0AE71C49074BCA68F2
:1005B0001B7822F08072062BCA607FF4ACAE074B2A
:1005C0001B681F077FF4A7AEE9E600BFE00F00F04D
:1005D00000ED00E0000000200090D003E40F00F0E8
:1005E000E80F00F058020010E40E00404402001032
:1005F0003C050040240300104035014074C0074012
:100600000DF0ADBA10560040885600401856004014
:100610001456004000C00040A0050040F0ED00E08E
:10062000184B0122C3F80425D3F80024002AFBD07C
:100630004FF0102315221349C3F80022D1F80034DB
:10064000002BFBD04FF0102315220E49C3F80422D3
:10065000D1F800240B4B002AFAD00022C3F804255D
:10066000D3F80024002AFBD0BFF34F8F0649074B75
:10067000CA6802F4E0621343CB60BFF34F8F00BF40
:10068000FDE700BF00E0014000ED00E00400FA05D6
:1006900008B500F01FF8002000F00AF8032000F071
:1006A00007F8012000F004F8022000F001F8F2E75A
:1006B000074B4FF0A041185CD1F80435012282406D
:1006C00022EA03001340C1F80805C1F80C35704751
:1006D000B007000030B44FF0A04303224FF40035C0
:1006E0004FF480244FF400204FF48011C3F84427C6
:1006F000C3F84827C3F84C27C3F85027C3F8085558
:10070000C3F80845C3F80805C3F8081530BC70479E
:1007100008B5074B044613B10021AFF30080054B29
:100720001868836A03B19847204600F033F800BF89
:1007300000000000B807000070B50E4B0E4CE41A24
:10074000A41000251E46A54204D056F8253098472F
:100750000135F8E700F020F8084C094BE41AA41022
:1007600000251E46A54204D056F82530984701358D
:10077000F8E770BD640000206400002068000020DD
:100780006400002002440346934202D003F8011B98
:10079000FAE77047FEE700BFF8B500BFF8BC08BC39
:1007A0009E467047F8B500BFF8BC08BC9E4670472F
:1007B0001112131443000000040000200000000088
:0807C0009CFAFF7F010000001C
:1007C8000090D003000000000000000000000000BE
:1007D8000000000000000000000000000000000011
:1007E80000000000B4070000000000000000000046
:1007F80000000000000000000000000000000000F1
:1008080000000000000000000000000000000000E0
:1008180000000000000000000000000000000000D0
:100828000000000025020000010200000000000096
:04000003000002D126
:00000001FF
