:020000022000DC
:103000000000012071660200996602009B660200C2
:103010009D6602009F660200A1660200000000009B
:10302000000000000000000000000000A366020095
:10303000A566020000000000A7660200A966020063
:1030400009520200AB660200A5550200AB66020001
:10305000AB660200AB660200DD520200AB66020006
:10306000AB660200AB660200AB660200AB66020014
:10307000AB660200AB660200AB660200AB66020004
:10308000AB6602002D3F0200AB660200AB66020099
:10309000CD3F0200AB6602003D6B0200AB66020052
:1030A000AB660200AB660200AB660200AB660200D4
:1030B000AB660200AB6602000000000000000000EA
:1030C000AB660200AB660200AB660200AB660200B4
:1030D000AB660200AB660200AB66020000000000B7
:1030E00000000000000000000000000000000000E0
:1030F00000000000000000000000000000000000D0
:1031000000000000000000000000000000000000BF
:1031100000000000000000000000000000000000AF
:10312000000000000000000000000000000000009F
:10313000000000000000000000000000000000008F
:10314000000000000000000000000000000000007F
:10315000000000000000000000000000000000006F
:10316000000000000000000000000000000000005F
:10317000000000000000000000000000000000004F
:10318000000000000000000000000000000000003F
:10319000000000000000000000000000000000002F
:1031A000000000000000000000000000000000001F
:1031B000000000000000000000000000000000000F
:1031C00000000000000000000000000000000000FF
:1031D00000000000000000000000000000000000EF
:1031E00000000000000000000000000000000000DF
:1031F00000000000000000000000000000000000CF
:1032000010B5054C237833B9044B13B10448AFF320
:1032100000800123237010BD24180020000000004E
:10322000A4770200084B10B51BB108480849AFF35A
:1032300000800848036803B910BD074B002BFBD082
:10324000BDE81040184700BF00000000A47702004E
:1032500028180020B417002000000000154B002B98
:1032600008BF134B9D46A3F5803A00218B460F46BD
:103270001348144A121A03F0FCFD0F4B002B00D028
:1032800098470E4B002B00D09847002000210400E7
:103290000D000D48002802D00C48AFF3008003F069
:1032A000B7FD2000290002F0B1FB03F09DFD00BF37
:1032B00000000800000001200000000000000000E5
:1032C00024180020C8210020000000000000000099
:1032D000704700BF704700BF00B583B0044B009338
:1032E000044A402300F01EF803B05DF804FB00BF61
:1032F000F932020040180020F8B5144672B10F46AA
:103300000A26002579192246002002F01BFC0544FC
:10331000241A08B9013E01D0002CF3D1F8BD00BF3A
:1033200002F0D6BCF0B595B0002415460F4608460D
:103330001E4601F025FE3846234605A908220895B9
:103340001A9D09960D950A948DF82C400C9401F065
:1033500075FE9DF81430079806998DF8104003F01B
:103360000302012A0290ADF80C102CD0022A04D0DE
:10337000384601F015FE15B0F0BDBDF81650C3F388
:10338000C202C3F38003C5F389158DF80E208DF8B2
:103390000F300826082D2C4628BF08243346224625
:1033A00038460EA901F04AFE2D1B21460EA802AA9E
:1033B00008AB264400F0E4FC002DEBD1384601F0C8
:1033C000EFFD15B0F0BDBDF81460059DC6F3831682
:1033D000C3F3C20EB2000EA9C3F38004384608231B
:1033E000C5F395258DF80EE08DF80F4001F026FE0F
:1033F00008AB0093284632460EA902AB00F028FC29
:10340000B6E700BF10B5054CFFF78AFF2046042140
:1034100000F0DEFB0123637210BD00BF2017002007
:1034200008B5104B10480022FF21C3F818249960FA
:103430001A605A60C3F8142483F81C2401F058FD64
:1034400070B90A4B0A4A9A1AD20807D009490346AA
:103450000B520133934200F10C00F9D1002008BD5A
:1034600008BD00BF80180020D06E0200F87702006F
:10347000B0770200B817002021B9124A02EBC00051
:103480000068704730B410490E4D491BC9080ED072
:103490000E4B5A88824218BF002205D10FE0DC890A
:1034A000844203F10C0305D001328A42F7D1002097
:1034B00030BC704705EBC200006830BC704728463E
:1034C000FAE700BFB0770200F8770200B8170020D3
:1034D000094B013903EBC00003290BD8DFE801F0E9
:1034E000020806040220704740797047007970474F
:1034F0000420704700207047B07702002DE9F04F9C
:10350000874C626823689A4285B042D00023C4F891
:103510001834BFF34F8F6068A56805EA00030233D3
:1035200004EB8302111D127912F0030F024610D131
:103530000B884988C3F3891303EB911301331A44B1
:1035400002EA0503023304EB8306311D3679B60720
:10355000EED004EB8303511C5B680193294004EB1C
:10356000810103F00303C9680291022B02F10208F2
:103570006B4F12D0012B6DD0032B06D02368181A85
:1035800018BF012005B0BDE8F08FD7F81834002B24
:10359000F4D1002005B0BDE8F08FBDF806306148D9
:1035A000C3F38919B9F1500FCA46A8BF4FF0500AAA
:1035B0006AF38F130AF10801ADF8063001F09AFCA6
:1035C0000646002800F0878025EA080B0BF1010B66
:1035D00001F0D6FC4FEA8B0B304601A908220023EC
:1035E00001F004FDDA4540F28E80BBF1000F74D18A
:1035F00007F10C0152463046082301F0F7FC09F1AF
:10360000030708EB9707D4F81834DFF81481D4F8CF
:103610001054002B59D14DB16B7A2846314613B165
:103620002B681B6898476D68002DF5D1304601F076
:10363000B7FC04A8002300F80D3D01F099F8D4F878
:103640001834374A03B957609DF8030001F0B8F801
:10365000606893E7BDF804303248C3F38312062A4A
:1036600028BF0622911C62F389138900ADF804304B
:1036700001F040FC064670B301F082FC00233046A6
:1036800001A9082201F0B2FCBDF8043013F4707FE8
:1036900044D04FF0000A4FF0080908EA050104EB96
:1036A00081014B460C313046042201F09FFCBDF8ED
:1036B00004300AF1010AC3F3831308F101075345EB
:1036C00009F10409B846E8D89DE7304601F068FCE6
:1036D000D8F8040052E7786850E708EA050107EBDC
:1036E0008101CBEB0A0530465A460C31EDB2082376
:1036F00001F07CFC30462A4607F10C010BF108036F
:1037000001F074FC7BE708EA050107EB81010C314D
:1037100052463046082301F069FC70E7474672E7DD
:1037200080180020D06E02002DE9F04F89B008AB60
:1037300000265B4C03F80D6D02901846A3680391B8
:10374000019301F015F8A5686168D4F800806B1842
:103750000133C8EB0303032B5ED805F10109B6461C
:10376000C8EB090904F5836C04F214470126A2464C
:103770005CE8003F43EA06024CE8002090F0000FAE
:10378000F6D157E8003F43EA060247E8002090F0F0
:10379000000FF6D101EA0503023304EB8302101D8A
:1037A000127912F0030F0A4613D103884088C3F33D
:1037B000891303EB901301331A4402EA0503023321
:1037C00004EB830B0BF104009BF804B01BF0030F18
:1037D000EBD004EB830302325B68059303F0030331
:1037E000012B57D0022B06D1BDF81630C3F3891335
:1037F000033302EB930257E8003F03EA0E0047E869
:10380000000B9BF0000FF6D113B1CAF8042011464B
:1038100009EB0103032BABD905EA0803023304EBE0
:1038200083039DF813001A7942F003021A7123688A
:103830000233236000F0C4FF019B029D08F10102E6
:103840001A4008EA030304EB8202023304EB830309
:10385000290CD1601A79C5F3001161F3820265F376
:10386000C5021A719A886FF389129A805A6803996F
:1038700061F39F221146012060F301015A60197122
:1038800094F81C341BB1FFF739FE0028FBD109B0B6
:10389000BDE8F08FBDF81430C3F383131A44AAE7D0
:1038A000801800202DE9F04F89B008AB00265F4C4E
:1038B00003F80D6D01901846A368029100930392DE
:1038C00000F056FFA5686168D4F800806B180133DA
:1038D000C8EB0303042B5ED805F10109B646C8EB1B
:1038E000090904F5836C04F214470126A2465CE83A
:1038F000003F43EA06024CE8002090F0000FF6D1AA
:1039000057E8003F43EA060247E8002090F0000F26
:10391000F6D101EA0503023304EB8302101D12798C
:1039200012F0030F0A4613D103884088C3F38913AA
:1039300003EB901301331A4402EA0503023304EB4C
:10394000830B0BF104009BF804B01BF0030FEBD0CA
:1039500004EB830302325B68059303F00303012B3E
:103960005ED0022B06D1BDF81630C3F389130333A2
:1039700002EB930257E8003F03EA0E0047E8000B12
:103980009BF0000FF6D113B1CAF80420114609EBE1
:103990000103042BABD905EA0803023304EB8303CC
:1039A0009DF813001A7942F003021A712368033359
:1039B000236000F005FF009B019D039E08F10201BA
:1039C00008F1010219401A4008EA030304EB8101DF
:1039D00004EB8202023304EB8303280CCE60D06038
:1039E0001A79C5F3001161F3820265F3C5021A71F9
:1039F0009A88012060F389129A805A68029961F3CB
:103A00009F22114660F301015A60197194F81C3429
:103A10001BB1FFF773FD0028FBD109B0BDE8F08FA3
:103A2000BDF81430C3F383131A44A3E780180020B1
:103A30002DE9F04F8BB00AAD0026644C05F80D6DF2
:103A4000029005932846A36803910193049200F025
:103A50008FFEA5686168D4F800806B180133C8EB4D
:103A60000303052B5ED805F10109B646C8EB090929
:103A700004F5836C04F214470126A2465CE8003F7B
:103A800043EA06024CE8002090F0000FF6D157E818
:103A9000003F43EA060247E8002090F0000FF6D10D
:103AA00001EA0503023304EB8302101D127912F0C0
:103AB000030F0A4613D103884088C3F3891303EB2D
:103AC000901301331A4402EA0503023304EB830B1B
:103AD0000BF104009BF804B01BF0030FEBD004EBD8
:103AE000830302325B68079303F00303012B66D064
:103AF000022B06D1BDF81E30C3F38913033302EB4A
:103B0000930257E8003F03EA0E0047E8000B9BF0E2
:103B1000000FF6D113B1CAF80420114609EB0103D6
:103B2000052BABD905EA0803023304EB83039DF8A8
:103B30001B001A7942F003021A71236804332360D0
:103B400000F03EFE019B029E049F08F10200184017
:103B500008F1030108F1010219401A4004EB80004A
:103B600008EA030304EB810104EB82020233C7601D
:103B700004EB83030598C860350CD5601A79C6F349
:103B8000001161F3820266F3C5021A719A8802215C
:103B900061F389129A805A68039961F39F22114652
:103BA000012060F301015A60197194F81C341BB1B3
:103BB000FFF7A4FC0028FBD10BB0BDE8F08FBDF8E7
:103BC0001C30C3F383131A449BE700BF8018002006
:103BD00030B4144DD5F81044002154B1237A8B42EF
:103BE00014D0234602E01A7A8A420FD05B68002B79
:103BF000F9D10172D5F810340A4A7BB15B68436091
:103C0000D2F810345860084630BC704701310A2998
:103C1000E3D14FF0FF31084630BC7047C2F81004C2
:103C20004360F0E78018002038B5084BD3F8104403
:103C3000012583F81C543CB12368657220465B68FB
:103C400098476468002CF7D138BD00BF8018002069
:103C50002DE9F04784B01D460C9C002394F80C809D
:103C60002373EB7981460E4617460BB3062F0FD808
:103C7000DFE807F0363B414804515E00B168F06868
:103C800096E80C00009101904946204600F01CFE89
:103C9000EB792BB92B7AEBB92046334900F014FEAF
:103CA000204600F005FE84F80C8004B0BDE8F087E3
:103CB0002B7A002B4BD1AA792C4BA88853F822A041
:103CC0000021FFF7D9FB524603462949204600F060
:103CD000FBFDCBE720462749274A00F0F5FDDBE74F
:103CE0004946204600F0F0FDD2E7494632682046BA
:103CF00000F0EAFDCCE74946204696E80C0000F0CB
:103D0000E3FDC5E7B16896E80C00204600914946FE
:103D100000F0DAFDBCE7B1683069F76896E80C009E
:103D20000091029049460197204600F0CDFDAFE793
:103D300096E80C00B168F0683769766903960091DF
:103D4000019049460297204600F0BEFDA0E7A97900
:103D5000A888FFF7BDFB094B064953F820202046F1
:103D600000F0B2FDA7E700BF346F0200E46E02006E
:103D7000206F02001C6F02002C6F0200F86E020020
:103D8000082951D82DE9F0471D46002395F80C90DD
:103D90002B73D379904607460E46002B45D000245E
:103DA00005E03A5D013400F08FFD082C0AD0A642F0
:103DB00028463049F5D828462F49013400F084FDC3
:103DC000082CF4D128462D49DFF8D4A000F07CFD62
:103DD00000240DE03A5DDAF80030134401345B78DA
:103DE00013F0970F08BF2E2200F06EFD082C0AD0AA
:103DF000A64228462249EDD828462249013400F03F
:103E000063FD082CF4D198F8073013B998F80830FE
:103E1000F3B928461C4900F057FD284600F048FD3C
:103E200085F80C90BDE8F0877047137AB3B998F81D
:103E30000620164BB8F8040053F822400021FFF783
:103E40001BFB224603461249284600F03DFDA6E72B
:103E500028461049104A00F037FDDAE7917990883A
:103E6000FFF736FB0D4B0B4953F82020284600F096
:103E70002BFDDCE7386F0200406F0200446F020048
:103E8000486F0200286F0200346F0200E46E0200E7
:103E9000206F02001C6F02002C6F0200F86E0200FF
:103EA0004817002000B585B000230390194644F25E
:103EB000010001AAADF80430029300F003F805B048
:103EC0005DF804FB10B5FFF7AFFEFFF717FB002806
:103ED000FBD1104C10492088000440F00100FFF78E
:103EE00023FC0E4B1B68DB0700D5FFDE20880C4946
:103EF000000440F00200FFF717FCBFF34F8F0949A1
:103F0000094BCA6802F4E0621343CB60BFF34F8FE2
:103F100000BFFDE7B8170020AC6F0200F0ED00E035
:103F2000B86F020000ED00E00400FA05F8B5204A81
:103F3000204B0025C2F84051C2F84451C2F8485104
:103F4000C2F84C51C2F80051C2F804511B6813B3B7
:103F50001949D2F804250C68141B1A6824F07F4410
:103F6000A2422F4609D8197CDE69A41A154499B9D2
:103F70001EB133461A68A242F5D9104B10491A787F
:103F80000B789A420DD00F490F4A41F823504FF455
:103F90008013C2F80031F8BD1F745A6998699047C0
:103FA000E6E7531CDBB2022B08BF00230B70EAE7E5
:103FB00000100140741D0020701D0020781D00209D
:103FC000791D0020881E002000E100E02DE9F04F5F
:103FD0007D4A7E49137809787D48994287B0066802
:103FE00000F0E8810133DBB2022B08BF00237949DE
:103FF0001370794A0291084652F8231003687448F6
:104000008A19002522F07F420260AE462846A3B1FD
:104010001A688A4200F2D681DC68C3F800E0891A87
:104020001044DA6934B1871927F07F47DD619C605D
:104030005F601D461346002BEAD1029A0493136079
:10404000049C01230593654BDFF894811B78019351
:10405000029BDFF890C11F685D4BBB46D3F800A000
:104060002F4600230093C1461E464FF0010E37B382
:104070007A68B9683D46FF69CAEB020323F07F43C3
:1040800063453CD80B442B606E60AE6085F810E051
:10409000EE61002C67D021688B4242D9204603E0B4
:1040A0001168994244D21046C2695B1A002AF7D1BE
:1040B0002B60EA612346C5611C46002FD8D198F8D1
:1040C000003098F801209A4200F08E805A1C03EBD1
:1040D000430308EBC30399F802109D68D2B29142E2
:1040E00089F800201A7908BF89F80070022A48D0A0
:1040F000032A3CD0012A22D023461C46DDE7C2EB2E
:104100000A0222F07F428A4202D28B1A2B60BBE75E
:104110002E606E60AE6085F810E0EE611CB3216821
:104120000023CB1A23602B46EC61AB461C46C4E748
:10413000C91A11602B60EA612346C561BCE72A7C7D
:104140000392002AD8D1DA686A601969A9605869AF
:10415000E86010339B68AB61019B002B8CD0039B04
:104160006B601A4688E72B46AB461C46A5E70CB9A0
:10417000C2E71C46E3692674002BFAD19B461C4615
:104180009BE754B1A54200F00881234602E0954226
:1041900007D01346DA69002AF9D123462E741C464B
:1041A0008BE7AB4200F0FA80E9692868D961002901
:1041B000F3D023460A6802440A60009A2E749C4297
:1041C00018BF01220092EAE7781D0020791D002027
:1041D000701D0020741D0020881E00207A1D002004
:1041E0007C1D0020FEFF7F00029B9DF80420C3F889
:1041F00000B0764BC3F800A0754B1A70009B1BB93A
:10420000049BA34200F0D081002C00F03C81714D52
:104210006E4BD5F804051B686F4ED4F800C031789A
:10422000C21A22F07F420332002952D16B4FDFF8CD
:10423000B091DFF8B0814FF480314FF4003E01249B
:10424000C5F84413C5F80413C7F880E1C7F800E0C7
:104250002C602F21D9F8005000BF00BF00BF00BF65
:1042600000BF00BF00BF00BF45452FD000BF00BF4B
:1042700000BF00BF00BF00BF00BF00BF00BF00BF46
:1042800000BF00BF00BF00BF00BF00BF00BF00BF36
:1042900000BF00BF00BF00BF00BF00BF00BF00BF26
:1042A00000BF00BF00BF00BF00BF00BF00BF00BF16
:1042B00000BF00BF00BF00BF00BF00BF00BF00BF06
:1042C00000BF00BF00BF00BF00BF00BF0139C3D1A6
:1042D000347062452CBF9A1803EB0C023D4922F062
:1042E0007F43C1F84035D1F80425121A1B1A22F079
:1042F0007F4223F07F4303329A4248D9D1F80435F4
:10430000374AC1F84035126836492F2300BF00BF35
:1043100000BF00BF00BF00BF00BF00BF8A422FD058
:1043200000BF00BF00BF00BF00BF00BF00BF00BF95
:1043300000BF00BF00BF00BF00BF00BF00BF00BF85
:1043400000BF00BF00BF00BF00BF00BF00BF00BF75
:1043500000BF00BF00BF00BF00BF00BF00BF00BF65
:1043600000BF00BF00BF00BF00BF00BF00BF00BF55
:1043700000BF00BF00BF00BF00BF00BF00BF00BF45
:10438000013BC3D1154B4FF40032C3F80021104A52
:104390000023137007B0BDE8F08F2246D4F81CB09C
:1043A000BBF1000F22D0D16910685B4600297FF471
:1043B00001AF02E70C4B02931B680493002505959F
:1043C0001C4640E6521A1A6037E600BF701D0020F6
:1043D0007A1D002000100140901E002000E100E046
:1043E000441700200024F400741D00207549764B0A
:1043F000C1F808E075492F20096800BF00BF00BF61
:1044000000BF00BF00BF00BF00BF99422FD000BF58
:1044100000BF00BF00BF00BF00BF00BF00BF00BFA4
:1044200000BF00BF00BF00BF00BF00BF00BF00BF94
:1044300000BF00BF00BF00BF00BF00BF00BF00BF84
:1044400000BF00BF00BF00BF00BF00BF00BF00BF74
:1044500000BF00BF00BF00BF00BF00BF00BF00BF64
:1044600000BF00BF00BF00BF00BF00BF00BF0138DA
:10447000C3D1D1691068002900F09B800122DA467F
:104480005B46019296E64F4A514B504E4E484FF4D0
:1044900080314FF400370125C3F88070C2F848130B
:1044A0002F23C2F80813556031681E4600BF00BFB5
:1044B00000BF00BF00BF00BF00BF00BF81422FD0C0
:1044C00000BF00BF00BF00BF00BF00BF00BF00BFF4
:1044D00000BF00BF00BF00BF00BF00BF00BF00BFE4
:1044E00000BF00BF00BF00BF00BF00BF00BF00BFD4
:1044F00000BF00BF00BF00BF00BF00BF00BF00BFC4
:1045000000BF00BF00BF00BF00BF00BF00BF00BFB3
:1045100000BF00BF00BF00BF00BF00BF00BF00BFA3
:10452000013EC3D195602B4A146000BF00BF00BF9D
:1045300000BF00BF00BF00BF00BF81422FD000BF3F
:1045400000BF00BF00BF00BF00BF00BF00BF00BF73
:1045500000BF00BF00BF00BF00BF00BF00BF00BF63
:1045600000BF00BF00BF00BF00BF00BF00BF00BF53
:1045700000BF00BF00BF00BF00BF00BF00BF00BF43
:1045800000BF00BF00BF00BF00BF00BF00BF00BF33
:1045900000BF00BF00BF00BF00BF00BF00BF013BA6
:1045A000C3D10D4B1C70F2E6059B002B3FF4EFAE20
:1045B0002AE601231A4601938A468B460B4600924F
:1045C0002E74ECE5001001400024F4004417002094
:1045D00000E100E0701D0020901E00202DE9F04158
:1045E000594B5A4A5A4D5B4E4FF480344FF40031C8
:1045F0000120C2F88010C3F848432F21C3F80843B4
:1046000058602D680C4600BF00BF00BF00BF00BF50
:1046100000BF00BF00BFB5422FD000BF00BF00BF2A
:1046200000BF00BF00BF00BF00BF00BF00BF00BF92
:1046300000BF00BF00BF00BF00BF00BF00BF00BF82
:1046400000BF00BF00BF00BF00BF00BF00BF00BF72
:1046500000BF00BF00BF00BF00BF00BF00BF00BF62
:1046600000BF00BF00BF00BF00BF00BF00BF00BF52
:1046700000BF00BF00BF00BF00BF013CC3D1364C2C
:1046800098600020206000BF00BF00BF00BF00BFD7
:1046900000BF00BF00BFB5422FD000BF00BF00BFAA
:1046A00000BF00BF00BF00BF00BF00BF00BF00BF12
:1046B00000BF00BF00BF00BF00BF00BF00BF00BF02
:1046C00000BF00BF00BF00BF00BF00BF00BF00BFF2
:1046D00000BF00BF00BF00BF00BF00BF00BF00BFE2
:1046E00000BF00BF00BF00BF00BF00BF00BF00BFD2
:1046F00000BF00BF00BF00BF00BF0139C3D1174DCD
:104700001749DFF86080DFF860C0DFF860E02870EC
:104710004FF48016E0250B27C8F800008CF8000045
:104720008EF80000087048708F70C2F8806182F8BF
:1047300014531660C3F8080582F81153D3F80435F2
:104740002360BDE8F08100BF0010014000E100E0FF
:10475000441700200024F400701D0020901E00204B
:104760007C1D0020741D0020781D0020791D002074
:10477000F0B4EFF3108472B60E4B9A68B2B90E49DA
:1047800001259D60D1F880700C4D2E463D401D6086
:10479000C1F88060D1F884505D604FF0FF33C1F8FC
:1047A0008430027004B962B6F0BC70470123037014
:1047B000F8E700BF4421002000E100E0FC06FFBD57
:1047C000094B9A6872B168B910B4EFF3108272B6EF
:1047D00006491C680C605C684C60986002B962B65F
:1047E0005DF8044B704700BF4421002000E100E069
:1047F000B8B130B4416882680468521AD2B2531E0C
:104800002160DBB242B101680A685C1E551C0D6074
:104810001370E3B2FF2BF6D103680020187130BC8F
:1048200070470E20704700BF70B582B002AB002504
:1048300003F8015D04461846FFF79AFF2368616894
:104840001A688A4210D9511E19602168A3680E683F
:10485000087912F8015C228AE4689B1BDBB298425B
:1048600005FB024538BF0B719DF80700FFF7A8FF55
:10487000284602B070BD00BF30B583B002AB002245
:1048800003F8012D054618460C46FFF771FF2A680C
:104890001368591C1160E9682A8A641AB4FBF2F49F
:1048A0001C709DF80700FFF78BFF03B030BD00BF01
:1048B000826802B9704710B50446436921680069EF
:1048C00098470023A36010BD0EB400B582B00399D1
:1048D00029B102AA04AB42F8043D00F089F802B005
:1048E0005DF804EB03B070472DE9F84F1746B94265
:1048F0008A4606461D46DDF828B00B9A73D30B4650
:104900004FF00108B3FBF7F39F4208F10108F9D912
:10491000A84538BFA84612F0010902D1BBF1000F2B
:1049200041D1B168012402E0013D07FB04F4012DEF
:10493000FAD8BAFBF4F39F42F7D92C4D02E0B168E4
:10494000BAFBF4F34A1CB2603268E85C5054B068B9
:104950007268904204FB13AA02D33046FFF7A8FF07
:10496000B4FBF7F4002CEAD1B9F1000F15D0BBF17C
:10497000000F12D0C34510D92024B3683268591CE7
:10498000B160D454B26873689A420BF1FF3B06D20F
:10499000BBF1000F01D0C345EFD8BDE8F88F30461A
:1049A000FFF786FFF4E7930718D42024C345B8D94E
:1049B000B16833684A1CB2605C54B168736899424C
:1049C0000BF1FF3B05D2BBF1000FABD0C345F0D8D4
:1049D000A8E73046FFF76CFFB168F4E7002D14BF7D
:1049E00020243024E2E74FF0010891E7D06F020065
:1049F0002DE9F04F0D4685B0002900F0B2800B780C
:104A0000DFF8E8A4064691460135002B00F0A580AA
:104A1000252B40F0A28129464FF000080D4611F8E1
:104A2000013B2D2B00F09381302B00F093812B2B39
:104A300000F085812A2B00F09E81A3F13002092A23
:104A400000F2BE816A1C002404EB840403EB4404DE
:104A50002A2BA4F13004154600F08E811378A3F1BF
:104A60003001092905F10102EED91A462E2A00F07B
:104A70009081002701E015F8012F02F0FB03682B5D
:104A8000F9D0253A532A63D8DFE812F027016200F3
:104A90006200620062006200620062006200620006
:104AA00062006200620062006200620062006200F6
:104AB00062006200620062006200620062006200E6
:104AC00062006200620062006200620062006200D6
:104AD00062006200620062006200620062006200C6
:104AE00062006200620062006200620062006200B6
:104AF00062004A01620062006200620062006200BD
:104B000062006200620062003601CE006200620054
:104B100062006200CE006200620062006200620019
:104B20006200A900620062006E0062005400620030
:104B300062004A01D9F800301A1DC9F8002019682E
:104B400000943B46CDF8048030460A22FFF7CCFEA5
:104B500001352B78002B7FF457AF337B002B40F0CF
:104B60006C8105B0BDE8F08FD9F800301A1DC9F886
:104B7000002018F0010F1F6840F02581002F00F081
:104B8000A581384602F085F98046444515D9A4B17F
:104B90004FF0200B00E084B1B2683368511CB16063
:104BA00003F802B0B26873689A4204F1FF3402D38A
:104BB0003046FFF77DFE4445EDD8013F17F8013F31
:104BC000002BC5D0B2683168501CB0608B54B268FD
:104BD00073689A42F2D33046FFF76AFEEEE7D9F8DF
:104BE0000020131DC9F80030B36831681468581CE0
:104BF0003022B060CA54B3687268934280F0188162
:104C00003268581C7821B060D154B26873689A42F7
:104C100080F00A8108230022019221460093304649
:104C20001022FFF761FE93E7D9F800301A1DC9F88A
:104C30000020D3F800B08BEAEB73A3EBEB73092BE6
:104C40004FF0010108DD8AFB0302DB17C3EBA2036F
:104C5000092B01F10101F6DCB94238BF394634B104
:104C6000BBF1000F02DB18F0040F00D0013C18F07C
:104C7000020F40F0D58018F0010F18D1002C00F081
:104C800006818C4213D94FF0200CB2683368501C57
:104C9000B06003F802C0B26873689A4204F1FF344E
:104CA00080F0F780002C00F0F2808C42EDD8BBF150
:104CB000000FC0F20D8118F0040F40F0F48008F0EE
:104CC0000303022B00F0BF808DE8100159463B46DC
:104CD00030460A22FFF708FE3AE7B3683268581CEC
:104CE0002521B060D154B26873689A42FFF430AFA6
:104CF0003046FFF7DDFD2BE7D9F80020131DC9F87A
:104D00000030B36831681278581CB060CA54B26879
:104D100073689A42FFF41CAF3046FFF7C9FD17E7EE
:104D2000D9F800301A1DC9F80020196800943B46D4
:104D3000CDF8048030461022FFF7D6FD08E70D4677
:104D400011F8013B2D2B48F004087FF46DAE48F0BC
:104D5000010863E648F0020860E6B2683168501C5A
:104D6000B0608B54B26873689A42FFF4F2AE30467A
:104D7000FFF79EFDEDE60024D9F800301A1DC9F8B2
:104D800000206A781B682E2A1C4405F101057FF477
:104D900070AE6A78A2F13003092B05F101054FF0DE
:104DA00000073FF66AAE07EB870702EB470715F8E7
:104DB000012FA2F13003092BA7F13007F3D95CE6EC
:104DC0001A46002452E6B846C7EB080B18F8012B28
:104DD0008AB1B1683368481CB0605A54B2687368CD
:104DE0009A42F1D33046FFF763FDC7EB080B18F882
:104DF000012B002AEDD15C457FF6AAAE2027B368CF
:104E00003268591CB160D754B26873689A4204F191
:104E1000FF3402D33046FFF74BFD5C45EFD897E6F1
:104E2000002F3FF444AF26E73046FFF741FDF1E69F
:104E30003046FFF73DFDB368E2E6304605B0BDE819
:104E4000F04FFFF735BD002F7FF43EAF002C3BD075
:104E50008C427FF639AF4FF0300CB2683368501C8B
:104E6000B06003F802C0B26873689A4204F1FF347C
:104E700003D24CB38C42F0D826E73046CDF80CC0B4
:104E80000291FFF715FDDDF80CC00299F1E700244F
:104E90000DE73046CDF80CC00291FFF709FDDDF8B3
:104EA0000CC00299FEE6B268531CB36033682B2035
:104EB0009854B26873689A42FFF401AF3046029189
:104EC000FFF7F6FC0299FAE60024FDE6B8465CE638
:104ED000B268531CB36033682D209854B26873686D
:104EE0009A42CBF1000BFFF4EAAEE7E7676666662D
:104EF000FFF77EBC2DE9F041B0F81080A8F104085E
:104F00004144CF1C0646FFF78FFCB7FBF8F7044679
:104F100078B3FFB200250123013FA0F806800660A8
:104F20000571437128D0804609E06379AF4203F1EF
:104F300001036371C8F80000066080461CD030464B
:104F4000FFF772FC01350028EFD16679721E234607
:104F500003D0013082421B68FBD81F684EB1002588
:104F600023682146013538461C46FFF785FCAE42D2
:104F7000F6D10020BDE8F0812046BDE8F08100BFF9
:104F800010B40430012350E8002F02EB030140E885
:104F9000001494F0000FF6D15DF8044B704700BF89
:104FA0000146021DF8B5012052E8004FA4EB0003B2
:104FB00042E8003595F0000FF6D113F0FF0300D062
:104FC000F8BD4E79701E0A4603D00133984212682C
:104FD000FBD81768002EF3D000240D680134384642
:104FE000FFF74AFCA6422946F7D1F8BD2DE9F0416A
:104FF0000446181DE688B0FBF6F30F46154606FB7F
:10500000130013B1013B2468FCD1321AAA4228BF15
:105010002A468DB14FF000082044AD1A07EB080175
:105020000430904401F01AFFB5422A46246828BF94
:1050300032460020002DEFD1BDE8F0812DE9F0418E
:10504000C688043304460F46B3FBF6F0154606FB4C
:10505000103110B101382468FCD1721AAA4228BF5D
:105060002A468DB14FF000082144AD1A043107EBF8
:105070000800904401F0F2FEB5422A46246828BF99
:1050800032460021002DEFD1BDE8F08101600B68B0
:1050900043604A68934204BF00234360704700BFE7
:1050A000426842B101688B68134443604A68934286
:1050B00004BF002343607047184A30B402F1F00582
:1050C000AB1ADB1003EBD3735B1002EBC30152F896
:1050D0003330984228BF0C4605D311E052F83330E4
:1050E00098420CD221468B1ADB1003EBD3735B1072
:1050F000914202EBC304F1D8094830BC70470D4619
:10510000984204D904F10802AA42D9D3F4E76068AE
:10511000034B002808BF1846EFE700BFF4720200F7
:10512000E473020000B1704710B5064CA3683BB1B0
:105130001A68A2605B6800209847A368002BF7D12B
:1051400010BD00BF941E002010B5012882B02AD0E7
:1051500023D303281FD10020072100F097F802A8CD
:105160000023264C00F8013DFFF702FBE368013BFA
:10517000E360E3685BB9224B01221A604FF0804282
:10518000D2F81834C3F30043002BF9D1A3709DF873
:105190000700FFF715FB02B010BD1A4B0122C3F840
:1051A000802002B010BD02A80023144C00F8013D7D
:1051B000FFF7DEFA237893B9124A6360A360236194
:1051C000E360106810F0010014D001F0B1FC20B9C8
:1051D0004FF080430122C3F8182501232370E368B0
:1051E0009DF8070001330122E360A270FFF7E8FA9F
:1051F00002B010BD072100F049F8E6E7941E002038
:105200000C00004000E100E010B51D4B1A6882B0B0
:10521000F2B91C4B1A680AB902B010BD00221A601C
:105220001B6801934FF080430222174C0199C3F889
:10523000082323690122A270002BEDD01A68226195
:105240005B68012098472369002BF7D102B010BD9D
:1052500000221A601B6800934FF0804301220A4C21
:105260000099C3F80823A3686270002BD1D01A6894
:10527000A2605B6800209847A368002BF7D1C8E7BD
:105280000001004004010040941E0020002810B4DA
:1052900018DB00F1604303F561434901C9B283F8AB
:1052A0000013C3B24009800000F1604000F5614086
:1052B00003F01F0201239340C0F8803103605DF8C2
:1052C000044B7047C3B2044A03F00F04490122445F
:1052D000C9B21176E6E700BFFCEC00E02DE9F0472B
:1052E00086B00026A24B01961A68012A00F032818E
:1052F000A04B1A68012A00F01F819F4B1A68012AEF
:1053000000F00C819D4B1A68012A00F0F9809C4B3B
:105310001A68012A00F0E6809A4B1A68012A00F008
:10532000D380994B1A68012A00F0C080974B1A6805
:10533000012A00F0AD80964B1A68012A00F09B808C
:1053400016F0FF0F1AD0934F01250024A30003F19C
:105350008043354203F5C0434FEA45050BD0D3F8EF
:10536000100557F82420D3F81015C0F30420C1F31A
:10537000014102B190470134082CE7D1002E02DB35
:1053800006B0BDE8F087844D00224FF0FF33A5F151
:10539000530702920393814C4FF00008012614F842
:1053A000011FFF292BD0C9B221F0C00006AB4FEA84
:1053B000D00E03EB0E0201F0070312F80CCC06FA34
:1053C00003F31CEA030F1AD007EB000C89099CF9C0
:1053D00030C057F82CC0BCF1000F3CD003293CD0A2
:1053E0004FEA800E0EF1A04E12F8149CDEF8002752
:1053F00019EA030FC2F3014211D1032A36D0AC429D
:10540000CDD1B8F1000FBBD04FF0A043019AD3F833
:1054100010359342B4D0029A01930392BBE7022A5B
:10542000EDD1032904D0BCF1000FE8D0E047E6E756
:105430004FF44039DEF8002722F44032CEF800273E
:10544000DEF8003708F1010849EA03035FFA88F83B
:10545000CEF80037E7E70329D1D10DF1080A1AF891
:105460000E9049EA03090AF80E90B9E70329DAD148
:105470004FF40039DEE700221A601B6805934FF0F5
:10548000A043059AD3F81035019346F0004657E73C
:10549000434AD2F8042312067FF54DAF00221A606A
:1054A0001B680493049B46F0800644E73C4AD2F80C
:1054B000042351067FF53AAF00221A601B6804935B
:1054C000049B46F0400631E7354AD2F804239006A3
:1054D0007FF527AF00221A601B680493049B46F0F7
:1054E00020061EE72E4AD2F80423D4067FF514AF17
:1054F00000221A601B680493049B46F010060BE719
:10550000274AD2F8042315077FF501AF00221A605D
:105510001B680493049B46F00806F8E6204AD2F87C
:10552000042357077FF5EEAE00221A601B68049330
:10553000049B46F00406E5E6194AD2F804239207D4
:105540007FF5DBAE00221A601B680493049B46F0D3
:105550000206D2E61249D1F8041311F0010105D078
:105560001E601B680493049B1646C1E60E46BFE608
:105570000061004004610040086100400C6100408F
:105580001061004014610040186100401C6100403F
:105590007C610040A81E0020FB1E0020F71E00209A
:1055A00000600040F0B59B4C237F8FB0002B75D17D
:1055B000994AD2F80413890548D4974BD3F80423A9
:1055C000520704D5D3F80821002A40F0CA80924B34
:1055D000D3F81C21C2B1A28AA07D8E4992B2824228
:1055E0004FF00002C3F81C2180F0A980D3F81C21E1
:1055F0000692069A888A8A8A8D6880B20132285C6F
:1056000092B28A82C3F81C05834BD3F84421DAB1E5
:105610000022C3F84421D3F84411A27E04910499D6
:10562000002A40F08980E27D7A4B6AB10022587EE0
:10563000D968DA7501228DF830000B918DF8282099
:105640000AA893E8060090470FB0F0BDD2F82411E5
:105650000029B2D0C2F82431D2F82411A37E0791D8
:105660004FF401710798C2F808130BB90123536076
:10567000694A02238DF82830D2F88034C2F8803489
:10568000E07DE2680D9300238DF83000E37523760A
:1056900021680B9263680AA8984798E75E4BD3F895
:1056A0002421002A40F09380D3F8101161B1C3F88F
:1056B0001021D3F8101103910399D3F83C15E07D24
:1056C000C9B2884200F0AA80534BD3F84421B2B14A
:1056D0000022C3F84421D3F84411E07D01910199DF
:1056E0004C4960B1D3F83C35C8688DF8303001239F
:1056F000CA750B908DF828300AA80AC99847464BFE
:10570000D3F82021002A9FD00022C3F82021D3F80B
:105710002011A07D009100993E49002894D0D3F833
:105720004C058B688DF830008A750B938DF8282016
:105730000AC90AA8984787E701221A6073E7D3F8D5
:105740001C310593059B00283FF45EAF8B688DF8F4
:1057500030008A750B938DF828200AC90AA898474B
:1057600052E7E17D2B4A002970D00021C3F80811CF
:10577000D3F8081108910899D068517ED3F81835EC
:105780004354537ED17D0133DBB25376627E214B8D
:105790008A427FF41CAF1A7E002A6DD19B7E13B91A
:1057A0001D4B01225A601C4AE06863684FF4017186
:1057B000C2F80813627E8DF83020002501220B907C
:1057C0002168E5758DF828200AA89847FFE6002291
:1057D000C3F82421D3F82411029102218DF8281056
:1057E0000299D3F88014C3F880140D91D3F83C15B6
:1057F000E368E27522768DF830100B9321686368B8
:105800000AA89847044BD3F84421002A3FF477AF05
:105810005EE700BF001F002000200040217EF1B1A4
:10582000D3F80072E17527F02001E6682569C3F816
:10583000001201238DF830008DF82830227621687F
:105840000B96E56063680AA898473DE7C3F808111E
:10585000D3F808210992099AD3F8183596E7E26837
:10586000E17501238DF830008DF828300B9294E813
:105870000A000AA8984727E7DE685D7E1869DA758E
:1058800001210022D8601A765A768DF828100B96DE
:105890008DF8305093E806000AA8904797E600BFBD
:1058A0003EDF704773DF704700283ED01F4B204A11
:1058B0001B6800BF00BF00BF00BF00BF00BF00BF2C
:1058C00000BF93422FD000BF00BF00BF00BF00BF8A
:1058D00000BF00BF00BF00BF00BF00BF00BF00BFD0
:1058E00000BF00BF00BF00BF00BF00BF00BF00BFC0
:1058F00000BF00BF00BF00BF00BF00BF00BF00BFB0
:1059000000BF00BF00BF00BF00BF00BF00BF00BF9F
:1059100000BF00BF00BF00BF00BF00BF00BF00BF8F
:1059200000BF00BF00BF0138C3D17047441700203B
:105930000024F4004FF0A04310B44FF000524FF099
:1059400080444FF08051C3F80845C3F80815C3F8E8
:1059500008254FF40002002851D0C3F808254FF065
:10596000A0424FF080714FF000732648C2F808350E
:10597000C2F80C15C2F808154FF47A730268224970
:1059800000BF00BF00BF00BF00BF00BF00BF00BF1F
:105990008A422FD000BF00BF00BF00BF00BF00BFC2
:1059A00000BF00BF00BF00BF00BF00BF00BF00BFFF
:1059B00000BF00BF00BF00BF00BF00BF00BF00BFEF
:1059C00000BF00BF00BF00BF00BF00BF00BF00BFDF
:1059D00000BF00BF00BF00BF00BF00BF00BF00BFCF
:1059E00000BF00BF00BF00BF00BF00BF00BF00BFBF
:1059F00000BF00BF013BC3D15DF8044B7047C3F843
:105A00000C25ACE7441700200024F40000B500206A
:105A100093B0FDF705FD08B1FEF744FAFDF7F2FC7F
:105A2000FEF7DCFD08B1FEF73DFA4FF0A04303227C
:105A300000213D4DC3F878270846C3F85C27C3F81A
:105A40007027C3F87427C3F86427C3F86027297048
:105A5000FFF770FF3548FFF727FF012318462B702B
:105A6000FFF768FF3248FFF71FFF00F0E3FF08B1C0
:105A7000FEF718FA12AC002344F83C3D0120214601
:105A800001F09EF808B1FEF70DFA204601F04AF940
:105A900008B1FEF707FA5923ADF8003000211723AB
:105AA0003C22244EADF804302046029601F0E1F984
:105AB00000230422204619468DF80C308DF80F2063
:105AC000CDF830D000F0A4FB08B1FEF7EBF91A4C8A
:105AD00000211022204601F0CCF903260023A02249
:105AE000204601212670628163602372A381FFF743
:105AF000D9FE08B1FEF7D6F9002318462B70FFF740
:105B000019FF0E4B0E491888000440F00300FDF702
:105B10000BFEFDF7F3FC0028FBD1FFF7C1FE0028C8
:105B2000F7D0FEF7BFF9F4E743170020E093040035
:105B300060AE0A002C170020201F0020B81700209C
:105B4000107402002DE9F84F440004EB0008DFF860
:105B50007CB14FEAC8080BEB08038946D96A0129D2
:105B60008246164643D034D302293CD100F1010AC3
:105B70000AEB4A0A5D6A0BEBCA0A00271DE0126AAB
:105B8000641BB4422346A2EB050428BF33469C4263
:105B9000DAF8040028BF1C4622462844494601F092
:105BA0005DF90BEB080325441A6A954208BF0025EE
:105BB000361B2744A1445D6216D00BEB0802936AA2
:105BC000AB4203F1FF34DAD8126A1344013B5C1B89
:105BD000D7E79A6A5D6AAA429CBF1B6AD218013A4B
:105BE000521B964232D900273846BDE8F88F9A6A90
:105BF0005D6AAA4225D9571E1B6A7F1BB74228BF80
:105C000037465E1BB74241D30AF1010808EB48084A
:105C10000BEBC808A244D8F8040049463246284491
:105C20000BEBCA0BBD1B01F019F9D8F8040009EB06
:105C300006012A4601F012F9CBF824503846BDE897
:105C4000F88F1B6AD718013F7F1BD7E704440BEB83
:105C5000C40B00F1010ADBF820701C4B7F1BBE4215
:105C60000AEB4A0A25D303EBCA043A466068494660
:105C70002844F51B01F0F2F809EB070160682A4699
:105C800001F0ECF83746CBF82450ADE70AF10103F8
:105C900003EB43030BEBC303A24458680BEBCA0BA3
:105CA000284449463A463D4401F0D8F8CBF8245000
:105CB0009AE703EBCA0349465868324628443544FC
:105CC00001F0CCF83746CBF824508DE75021002066
:105CD000F8B5114C114B124AE3614FF4007E0023DA
:105CE000104FA36210266362E362A3656365E365F8
:105CF0000D49C4F820E00225A261A264E01DE7641A
:105D000026652561656101F0BCF82046074901F070
:105D1000B8F82023A371F8BD50210020401F0020B7
:105D200028740200301F002034740200387402000E
:105D30006DDF704772DF704779DF70477DDF704736
:105D400064DF7047F0B50488012C83B007D0148855
:105D500004F1020E9E4505D90C2003B0F0BD0720CA
:105D600003B0F0BD0578012D04D1457802352544F6
:105D7000AB42F1D3023B0F461C1B02A9A4B205465D
:105D800021F8024D07EB0E001646FFF7D7FF00285B
:105D9000E3D12B78022B17D0012B11D023460821F9
:105DA000FE2BD9D83288581CB8543288013292B2AE
:105DB0003280B95432880132134433800020CCE75A
:105DC0006B789C42EBD2E9E7BDF806309C42E5D304
:105DD0000921E5E72DE9F04F85B083460E9D008847
:105DE0002C880194BDF83C9000284ED000278A46AC
:105DF000164698463C4604E0BBF800300134A34206
:105E000026DDDBF8043053F8240003900DF10B017C
:105E100003A80022FFF794FF18BB9DF80B30B34294
:105E2000EAD10FB32A8893194B4519DC424403A8E1
:105E30000DF10B010127FFF783FF90B92B889DF827
:105E40000B2013442B80BBF800300134A342D8DC74
:105E5000DFB12B88019A013B9B1A9BB2FF2B12D911
:105E60000C2005B0BDE8F08F2B885A1C3344023358
:105E70004B4592B2F4DC2A8008F802A02A8801324D
:105E800092B22A80D2E708F80230002005B0BDE8BF
:105E9000F08F00BF2DE9F04700231788138090F89A
:105EA0002D3086B0144605460E46002B40F0C880C3
:105EB000AA78002A40F0F080EA78002A2CD169689C
:105EC00099B1DA1CBA42097822D80222F254238806
:105ED00001339BB20A222380F254238801339BB200
:105EE0002380F1542388013323802B89002B40F039
:105EF000F7802B8A002B40F00C812B8B002B40F07D
:105F000021812B6A002B5CD02288911DB94218D9BF
:105F10000C2006B0BDE8F087D91CB942F8D80221A0
:105F2000F154238801339BB201212380F15423884B
:105F30000B449BB22380F25423880B449BB22380F2
:105F4000BDE71988052940F2C9806FF4486801EB64
:105F5000080080B24FF27D3E704540F2BF80588805
:105F6000052840F2BB806FF4486C84441FFA8CFC17
:105F7000F44540F2B3804FF6FF7E714504D0704582
:105F800002D0814200F2AA800521B1542288013258
:105F900092B212212280B1542288013292B2228020
:105FA0001988B1543244090A51702288023292B2DF
:105FB00022805B88B35432441B0A53702388023317
:105FC00023806B6A002B2BD0998820880A1D0244FD
:105FD000BA429DD88A1CFE2A9AD8033131542288AD
:105FE000013292B2FF212280B1542288013292B252
:105FF00022801988B1543244090A51702088023035
:1060000080B220809A885AB199680393002965D09C
:10601000304400F023FF039B22889B881344238095
:1060200095F82C30002B40F0A680287800283FF40B
:1060300070AF2846314622463B46FFF783FE68E7AD
:10604000082F7FF665AF04A8FFF772FE00287FF4E3
:1060500060AF23880822F254238801339BB21B22AD
:106060002380F2542088013080B220800622304400
:106070000DF1110100F0F2FE23889DF81020063387
:106080009BB212F0FE0218BF01222380F254238833
:1060900001339BB223800BE70433BB423FF638AF9A
:1060A00004A8FFF749FE00287FF433AF2388BDF82A
:1060B00010200321F154238801339BB2192123803E
:1060C000F154238801339BB2F1182380100AF25453
:1060D0004870238802339BB22380EDE6072018E73F
:1060E00005F1080802218DE8900040460A46334633
:1060F000FFF770FE00287FF40CAF8DE8900040465B
:10610000062110223346FFF765FE00287FF401AF19
:10611000EFE605F110088DE89000404603210222C9
:106120003346FFF757FE00287FF4F3AE8DE890006A
:106130004046072110223346FFF74CFE00287FF42B
:10614000E8AEDAE605F118088DE890004046142123
:1061500002223346FFF73EFE00287FF4DAAE8DE8D8
:1061600090004046152110223346FFF733FE0028E9
:106170007FF4CFAEC5E6D5F82880B8F1000FADD0DA
:10618000B8F804200232FE2A3FF6C2AE23884FF050
:1061900000094FF0160A0132F254238801339BB2F2
:1061A000238006F803A0238801339BB22380B8F82C
:1061B0000020F2543344120A5A70238802339BB2EF
:1061C0002380B8F80410F0180A4661B1D8F80830F6
:1061D0001946002B82D000F041FEB8F80430228826
:1061E00013449BB2238009F1010995F82C205FFA32
:1061F00089F94A4509EB49087FF617AFAA6A02EB0D
:106200008808B8F804200232FE2AC4D980E600BF0C
:106210002DE9F04794B01F230D46ADF80E3004462B
:1062200000285AD0C278530753D590F82D3000215A
:10623000ADF80C10002B6BD18378002B40F0AB80B5
:106240001846032114AE5F1C0233304416FA87F758
:1062500016FA83F64FF0020E8BB2012100F840ECE3
:10626000ADF80C3007F8401C06F8402C6268B2B15B
:10627000D91C1F29167828D814AF581C9A1C17FA55
:1062800080F03B4417FA82F24FF0020E0A2703F81F
:1062900040ECADF80C1000F8407C02F8406C23890B
:1062A000002B40F08581238A002B40F09F81238BB7
:1062B000002B40F0B981236A002B00F0D880BDF894
:1062C0000C20911D1F2940F28F800C2014B0BDE8D6
:1062D000F087072014B0BDE8F087ADF80C00002D62
:1062E00000F00481EB78002BF3D128460CA90DF1C6
:1062F0000E02FFF7CFFD0028ECD19DF80E300CAA5E
:1063000020469DF80C10FFF715FD14B0BDE8F0878E
:106310000CAF3846FFF70CFD0028DBD1BDF80C3080
:1063200014AA03F1010C12FA8CFC03F1020E1344BF
:106330001FFA8EFE04AE4FF008094FF01B0803F859
:10634000409C0DF13101062206EB0E000CF8408C4A
:10635000ADF80CE000F082FDBDF80C209DF8301087
:10636000931D11F0FE019BB240F07C8114A8034400
:1063700003F8401CD31DA2789BB2ADF80C30002A64
:1063800040F01181E278002A3FF470AFD91C1F2938
:1063900018469AD856E70CAF3846FFF7CDFC0028D0
:1063A00098D1BDF80C30BDF83070E278991C0DF131
:1063B000500E581C89B204AE0EEB03091EFA80F091
:1063C000043306EB010E4FF0030A4FF019089BB29D
:1063D0004FEA172C09F840ACADF80C3000F8408CAF
:1063E00077548EF801C0CEE7188805287FF671AF84
:1063F0006FF4486C00EB0C06B6B24FF27D37BE422C
:106400007FF667AF5E88052E7FF663AF6FF4486E48
:10641000B6441FFA8EFEBE457FF65BAF4FF6FF77A0
:10642000B84204D0BE4202D0B0423FF652AF14A8E8
:10643000561C10FA86F600EB020E901C80B2122752
:106440004FF0050C0EF840CCADF80C0006F8407C7F
:106450001F88ADF80C1004AE3118375404323F0ACF
:106460004F7092B25B88B35432441B0A5370676A10
:106470009FB3B888BDF80C30811C9A1C56181F2E8B
:106480003FF623AFFE293FF620AF14AE591C06EBB2
:10649000030E16FA81F192B20330FF260EF8400C7B
:1064A000ADF80C2001F8406C398804AEB018B15436
:1064B000090A41700433BA8898B2ADF80C0062B191
:1064C000B96800293FF405AF304400F0C7FCBDF8BF
:1064D0000C30BA881344ADF80C3094F82C3053B912
:1064E00004AE2378002B53D13446F8E62B46ADF8A2
:1064F0000E502A4604E7A76A002F3FF4EAAEB98897
:106500000231FE293FF6E1AE9E46BDF80C304FF059
:10651000000804AE4FF0160914AA581C02EB030C35
:1065200012FA80F09A1C92B201310CF8401CADF8BE
:106530000C2000F8409C3988B1543244090A51704B
:106540000433B9889BB20A46F018ADF80C3079B123
:10655000BB681946002B3FF4BCAE00F07FFCBDF8D1
:106560000C30BA8894F82CE013449BB2ADF80C3090
:1065700008F101085FFA88F8F04508EB4802B0D24C
:10658000A76A07EB8207B9880231FE29C4D99CE6C5
:106590002046314603AA1F23FFF7D4FB00287FF4CF
:1065A00099AE34469BE604331F2B3FF68EAEF3E6DE
:1065B00003AA04F1080704AE4FF01F0802218DE87A
:1065C0000401384633460A46FFF704FC00287FF4EE
:1065D00081AE03AB8DE80801384633460621102210
:1065E000FFF7F8FB00287FF475AE5CE603AA04F120
:1065F000100704AE4FF01F088DE8040138463346FB
:1066000003210222FFF7E6FB00287FF463AE03AB11
:106610008DE808013846334607211022FFF7DAFBE0
:1066200000287FF457AE42E603AA04F1180704AE2F
:106630004FF01F088DE8040138463346142102222A
:10664000FFF7C8FB00287FF445AE03AB8DE80801D7
:106650003846334615211022FFF7BCFB00287FF493
:1066600039AE28E614A90B44012103F8401C81E649
:106670000649074A074B9B1A03DD043BC858D05014
:10668000FBDC00F013F8FCF7E9FD000018780200CD
:106690002017002024180020FEE7FEE7FEE7FEE7B3
:1066A000FEE7FEE7FEE7FEE7FEE7FEE7F0B4AF4BEE
:1066B0001B78062B1BD0AE4AD2F8883043F4700307
:1066C000C2F88830BFF34F8FBFF36F8F4FF01023A6
:1066D000D3F80022002AC0F27381D3F80432002BD1
:1066E000C0F26E81A34BA44A1A60F0BC7047A34B62
:1066F0001B681907DFD1A24B1B6803F0F002302A98
:1067000000F08E8003F0E003402B00F089809C4B6A
:106710001B6803F0F003302B00F09280984B1B684D
:1067200003F0F002302A6BD003F0E003402B67D077
:10673000934B1B6803F0F003302B00F00681904B65
:106740001B6803F0F002302A47D003F0E003402B2F
:1067500043D08B4B1B6803F0F003302B00F0E78035
:10676000874B1B6803F0F003302B77D0844B1B68FA
:1067700003F0F003502B00F08880814B1B6803F07E
:10678000F002302A18D003F0E003402B14D07C4BE9
:106790001B6803F0F002302A03D003F0E003402B23
:1067A00089D14FF08042D2F80034DB0783D56FF0F7
:1067B0000103C2F800347EE7724B734A1B6803F092
:1067C0004F031360694B1B78062B7FF474AF6B4B40
:1067D0001B6819077FF46FAFD9E74FF080430022A1
:1067E000C3F80C21C3F81021C3F838255F4B1B7880
:1067F000062BE7D1614B1B681E077FF45CAFA8E74F
:10680000624B5A4A1B6812786149C3F34233062A25
:106810000B602FD1594B1B681B077FF44CAF87E7E8
:106820005C4B524A1B6812785B49C3F30423062A67
:106830000B60DBD1514B1B681A073FF468AF3AE796
:106840004A4B564A1B7856491160062B7FF433AFEA
:106850004A4B1B681A077FF42EAF5FE7514E524C2C
:106860005249534B0527012500203F223760256000
:1068700008601A603D4B1B78062B7FF41CAF3F4B22
:106880001B681C077FF417AF70E74FF08052494B2D
:10689000D2F80414C3F82015D2F80814C3F824154C
:1068A000D2F80C14C3F82815D2F81014C3F82C151C
:1068B000D2F81414C3F83015D2F81814C3F83415EC
:1068C000D2F81C14C3F84015D2F82014C3F84415AC
:1068D000D2F82414C3F84815D2F82814C3F84C157C
:1068E000D2F82C14C3F85015D2F83014C3F854154C
:1068F000D2F83414C3F86015D2F83814C3F864150C
:10690000D2F83C14C3F86815D2F84014C3F86C15DB
:106910001649D2F84424C3F870250B78062B7FF46F
:10692000CAAE164B1B6818077FF4C5AE25E70F4BA0
:10693000214A1B780321062B11607FF4BCAE0F4B5C
:106940001B681D077FF4B7AE0AE71C49074BCA68EE
:106950001B7822F08072062BCA607FF4ACAE074B26
:106960001B681F077FF4A7AEE9E600BFE00F00F049
:1069700000ED00E0441700200090D003E40F00F089
:10698000E80F00F058020010E40E0040440200102E
:106990003C050040240300104035014074C007400E
:1069A0000DF0ADBA10560040885600401856004011
:1069B0001456004000C00040A0050040F0ED00E08B
:1069C000184B0122C3F80425D3F80024002AFBD079
:1069D0004FF0102315221349C3F80022D1F80034D8
:1069E000002BFBD04FF0102315220E49C3F80422D0
:1069F000D1F800240B4B002AFAD00022C3F804255A
:106A0000D3F80024002AFBD0BFF34F8F0649074B71
:106A1000CA6802F4E0621343CB60BFF34F8F00BF3C
:106A2000FDE700BF00E0014000ED00E00400FA05D2
:106A300010DF704770B5354C237884B013B108204F
:106A400004B070BD324D3349012302A82B70FEF70C
:106A50001DFB039B5BB11A68596800209047002812
:106A6000EED002A8FEF71CFB039B002BF3D102A87B
:106A70002949FEF70BFB039B4BB11A6859680020AC
:106A8000904702A8FEF70CFB039B002BF5D1234B8C
:106A900023491868019001A8FFF7CAFF0028CFD149
:106AA000204A214E2870E02301212170307082F8A5
:106AB000163382F8153392F816335B09991E0529AF
:106AC00019D8042B17D0194B9968C9B94FF4800312
:106AD000136002A81049FEF7D9FA039B4BB11A685C
:106AE00059680120904702A8FEF7DAFA039B002BB1
:106AF000F5D10020A4E742F20200FDF7D3F9E8E760
:106B00001A6842F480021A60E3E700BF40210020C7
:106B100041210020447402005074020040740200BD
:106B2000C53E020000E100E0422100204421002097
:106B3000014B1878704700BF4021002000B583B09A
:106B400068460849FEF7A2FA019B43B158681A68E3
:106B500090476846FEF7A4FA019B002BF6D103B0DC
:106B60005DF804FB6474020060DF704769DF704702
:106B700061DF704710B5382492B004A80DF106010A
:106B8000ADF80640FFF7F4FF88B902A80B49FEF7FD
:106B90007DFA039B002BF0D01A68596804A890472F
:106BA00002A8FEF77DFA039B002BF5D1E5E7052847
:106BB00001D0FDF777F912B010BD00BF707402006C
:106BC00070B50C4684B0002974D04F4B0B6005465D
:106BD00000210C2201A800F04CF90126032301A991
:106BE000202022688DF804508DF80660ADF808303A
:106BF000FFF7BCFF002860D100210C2201A800F0A3
:106C000038F90023402001A922688DF804308DF85E
:106C100005308DF80630FFF7A9FF78BB00210C2264
:106C200001A800F026F90023012001A922688DF8AF
:106C30000430FFF79BFF002858D100210C2201A847
:106C400000F017F9F823A12001A922680193FFF7AA
:106C50008DFF00283DD100210C2201A800F009F988
:106C60009DF8043022686FF3000301A9A0208DF87D
:106C70000430FFF77BFF70B904B070BD234B1D8853
:106C8000FEF71AFA2D0445F0010502462049284670
:106C9000FCF708FEC2E71D4B1C88FEF70DFA240422
:106CA00044F0010402461B492046FCF7FBFD00208E
:106CB00004B070BD0E2004B070BD144B1D88FEF7EB
:106CC000FBF92D043543024613492846FCF7EAFD3B
:106CD00092E70E4B1D88FEF7EFF92D0445F00105F4
:106CE00002460E492846FCF7DDFDB4E7074B1D8838
:106CF000FEF7E2F92D0445F0010502460849284651
:106D0000FCF7D0FD99E700BF20170020F417002002
:106D1000C4740200B07502007C7402005C7502004D
:106D200010750200F8B504460668FFF71DFF2368DA
:106D3000B342054618D0144F14493888000432462F
:106D400040F00200FCF774FE4FF080533888D3F80F
:106D50000C3122680E499B02000403F1005340F0FD
:106D600002009A1AFCF79EFD65B1074B28461C8865
:106D7000FEF7A2F9240444F0010402460549204626
:106D8000FCF790FD2846F8BDF417002004760200B9
:106D9000347602005876020048DF704700B585B0AF
:106DA00001A8FFF7F9FFA8B902A80E49FEF76EF98E
:106DB000039B002BF4D01A6859680198904702A8E9
:106DC000FEF76EF9039B002BF5D101A8FFF7E4FF56
:106DD0000028E9D0052801D0FDF764F805B05DF87A
:106DE00004FB00BF8476020008B5074B044613B1CC
:106DF0000021AFF30080054B1868836A03B1984700
:106E0000204600F04FF800BF00000000A07702000D
:106E100070B50E4B0E4CE41AA41000251E46A54278
:106E200004D056F8253098470135F8E700F03CF8D3
:106E3000084C094BE41AA41000251E46A54204D0B4
:106E400056F8253098470135F8E770BDAC1700209B
:106E5000AC170020B0170020AC17002010B5431E5F
:106E60000A44914204D011F8014B03F8014FF8E7AE
:106E700010BD02440346934202D003F8011BFAE717
:106E80007047034611F8012B03F8012B002AF9D1B2
:106E90007047034613F8012B002AFBD1181A01385A
:106EA00070470000FEE700BFF8B500BFF8BC08BCA3
:106EB0009E467047F8B500BFF8BC08BC9E467047B8
:106EC000D9320200D5320200D13202006170700066
:106ED000A01C0020A81C0020B01C0020B01C00201A
:106EE00018000000000000008C6F0200946F020088
:106EF0009C6F0200A46F02002C6F02004C6F020016
:106F0000546F02005C6F0200646F02006C6F02003D
:106F1000746F02007C6F0200846F02002573000012
:106F20003C25733E2025733A200000001B5B306D2A
:106F3000000000000D0A000020253032780000001B
:106F4000202020007C000000256300001B5B313BFB
:106F500033306D001B5B313B33316D001B5B313BCC
:106F600033326D001B5B313B33336D001B5B313BB8
:106F700033346D001B5B313B33356D001B5B313BA4
:106F800033366D001B5B313B33376D006572726FBA
:106F9000720000007761726E696E6700696E666FDD
:106FA000000000006465627567000000466174615E
:106FB0006C206572726F720053797374656D207204
:106FC000657365740000000062616C6C6F630000A3
:106FD000303132333435363738394142434445460F
:106FE0007077725F6D676D74000000004E52465FEF
:106FF00053554343455353004E52465F4552524FFB
:10700000525F5356435F48414E444C45525F4D4991
:107010005353494E470000004E52465F4552524F6F
:10702000525F534F46544445564943455F4E4F5473
:107030005F454E41424C4544000000004E52465FC1
:107040004552524F525F494E5445524E414C0000FA
:107050004E52465F4552524F525F4E4F5F4D454D27
:10706000000000004E52465F4552524F525F4E4F55
:10707000545F464F554E44004E52465F4552524F64
:10708000525F4E4F545F535550504F525445440039
:107090004E52465F4552524F525F494E56414C49FF
:1070A000445F504152414D004E52465F4552524F4F
:1070B000525F494E56414C49445F53544154450038
:1070C0004E52465F4552524F525F494E56414C49CF
:1070D000445F4C454E475448000000004E52465F06
:1070E0004552524F525F494E56414C49445F464CBF
:1070F000414753004E52465F4552524F525F494EF0
:1071000056414C49445F4441544100004E52465F51
:107110004552524F525F444154415F53495A4500D2
:107120004E52465F4552524F525F54494D454F555E
:10713000540000004E52465F4552524F525F4E552A
:107140004C4C00004E52465F4552524F525F464FE4
:107150005242494444454E004E52465F4552524FBA
:10716000525F494E56414C49445F414444520000ED
:107170004E52465F4552524F525F4255535900009E
:107180004E52465F4552524F525F4D4F44554C450B
:107190005F4E4F545F494E495449414C5A45440053
:1071A0004E52465F4552524F525F4D555445585FBF
:1071B000494E49545F4641494C4544004E52465F52
:1071C0004552524F525F4D555445585F4C4F434BBB
:1071D0005F4641494C4544004E52465F4552524F2E
:1071E000525F4D555445585F554E4C4F434B5F468B
:1071F00041494C45440000004E52465F4552524FB3
:10720000525F4D555445585F434F4E445F494E4978
:10721000545F4641494C4544000000004E52465FD1
:107220004552524F525F4D4F44554C455F414C5271
:10723000454144595F494E495449414C495A454496
:10724000000000004E52465F4552524F525F535469
:107250004F524147455F46554C4C00004E52465FE9
:107260004552524F525F4150495F4E4F545F494D16
:10727000504C454D454E5445440000004E52465F2B
:107280004552524F525F464541545552455F4E4F0D
:10729000545F454E41424C45440000004E52465F0B
:1072A0004552524F525F4452565F5457495F4552C0
:1072B000525F4F56455252554E0000004E52465FA7
:1072C0004552524F525F4452565F5457495F4552A0
:1072D000525F414E41434B004E52465F4552524F22
:1072E000525F4452565F5457495F4552525F444E75
:1072F00041434B0000000000EC6F02000100000061
:10730000F86F020002000000187002000300000085
:107310003C700200040000005070020005000000F4
:107320006470020006000000787002000700000090
:107330009070020008000000A87002000900000020
:10734000C07002000A000000DC7002000B000000A8
:10735000F47002000C0000000C7102000D0000002F
:10736000207102000E000000347102000F000000C6
:10737000447102001000000058710200110000006A
:107380007071020080000000807102008100000026
:10739000A071020082000000BC71020083000000A6
:1073A000D871020084000000F8710200850000001E
:1073B0001C7202008600000044720200900000006F
:1073C0005C720200910000007C72020000820000EA
:1073D0009C72020001820000BC7202000282000066
:1073E000D8720200556E6B6E6F776E206572726F89
:1073F0007220636F64650000636C6F636B00000054
:107400006770696F74650000756172740000000038
:10741000426561636F6E206578616D706C65207385
:107420007461727465642E005465726D696E616C6E
:107430000000000052545400534547474552000095
:1074400001000007F8770200F8770200080000004A
:10745000F877020000780200080000006E72665F94
:1074600073646800007802001078020008000000D1
:10747000B0770200B07702000800000073645F621A
:107480006C655F6366675F73657428292072657435
:1074900075726E6564202573207768656E2061744F
:1074A00074656D7074696E6720746F2073657420E5
:1074B000424C455F434F4E4E5F4346475F47415006
:1074C0002E00000073645F626C655F6366675F73C4
:1074D000657428292072657475726E656420257341
:1074E000207768656E20617474656D7074696E676D
:1074F00020746F2073657420424C455F4741505F94
:107500004346475F524F4C455F434F554E542E0004
:1075100073645F626C655F6366675F736574282977
:107520002072657475726E656420257320776865B6
:107530006E20617474656D7074696E6720746F205D
:1075400073657420424C455F434F4D4D4F4E5F4332
:1075500046475F56535F555549442E0073645F623A
:107560006C655F6366675F73657428292072657454
:1075700075726E6564202573207768656E2061746E
:1075800074656D7074696E6720746F207365742004
:10759000424C455F47415454535F4346475F415413
:1075A00054525F5441425F53495A452E0000000037
:1075B00073645F626C655F6366675F7365742829D7
:1075C0002072657475726E65642025732077686516
:1075D0006E20617474656D7074696E6720746F20BD
:1075E00073657420424C455F47415454535F434692
:1075F000475F534552564943455F4348414E4745CF
:10760000442E000052414D207374617274732061E6
:107610007420307825782C2063616E2062652061AB
:10762000646A757374656420746F20307825782ED1
:107630000000000052414D2073697A652063616E3D
:107640002062652061646A757374656420746F20BC
:10765000307825782E00000073645F626C655F658A
:107660006E61626C6528292072657475726E65643E
:107670002025732E000000006E72665F7364685FE1
:10768000626C6500A8770200B07702000800000075
:107690006E72665F7364685F736F63000020202002
:1076A00020202020202028282828282020202020B2
:1076B0002020202020202020202020202088101082
:1076C00010101010101010101010101010040404DE
:1076D000040404040404041010101010101041419C
:1076E000414141410101010101010101010101018A
:1076F000010101010101010110101010101042429E
:107700004242424202020202020202020202020259
:1077100002020202020202021010101020000000F9
:107720000000000000000000000000000000000059
:107730000000000000000000000000000000000049
:107740000000000000000000000000000000000039
:107750000000000000000000000000000000000029
:107760000000000000000000000000000000000019
:107770000000000000000000000000000000000009
:1077800000000000000000000000000000000000F9
:1077900000000000000000000000000000430000A6
:0877A0004C170020000000005E
:0877A800255102000000000061
:1077B000CC6E020000000300C86F02000000000051
:1077C000F8730200000000000074020000000000D6
:1077D0005C740200000003007876020000000300E1
:1077E0009076020000000300E06F0200000000003D
:0877F000087402000000000013
:0877F8004951020000000000ED
:10780000756B0200000000009D6D0200000000008A
:087810004CBAFF7F01000000EB
:10781800C06E020000000000000000000215011206
:10782800233445566778899AABBCCDDEEFF0010268
:107838000304C3010090D0039C76020000000000FE
:107848000000000000000000000000000000000030
:107858000000000000000000000000009D7702000A
:107868000000000000000000000000000000000010
:107878000000000000000000000000000000000000
:1078880000000000000000000000000000000000F0
:107898000000000000000000000000002532020087
:0878A8000132020000000000A3
:1078B00000000000000000000000000000000000C8
:1078C00000000000000000000000000000000000B8
:1078D00000000000000000000000000000000000A8
:1078E0000000000000000000000000000000000098
:1078F0000000000000000000000000000000000088
:107900000000000000000000000000000000000077
:0C7910000000000000000000000000006B
:040000032000667102
:00000001FF
